S02B0000563A5C55736572735C796F6E676A69655C446F63756D656E74735C4D43555870726573736F49444570
S315600000004643464200040156000000000003030018
S315600000100101000001040000000200000000000071
S31560000020000000000000000000000000000000006A
S31560000030000000000000000000000000000000005A
S31560000040000000000104070000000000000000003E
S315600000500000000200000000000000000000000038
S31560000060000000000000000000000000000000002A
S31560000070000000000000000000000000000000001A
S31560000080EC04200A0632042600000000000000008E
S3156000009005040424000000000000000000000000C9
S315600000A000000000000000000000000000000000EA
S315600000B006040000000000000000000000000000D0
S315600000C000000000000000000000000000000000CA
S315600000D0200404080000000000000000000000008A
S315600000E000000000000000000000000000000000AA
S315600000F0000000000000000000000000000000009A
S315600001000000000000000000000000000000000089
S3156000011032041808042200000000000000000000FD
S315600001200000000000000000000000000000000069
S31560000130C70400000000000000000000000000008E
S315600001400000000000000000000000000000000049
S315600001500000000000000000000000000000000039
S315600001600000000000000000000000000000000029
S315600001700000000000000000000000000000000019
S315600001800000000000000000000000000000000009
S3156000019000000000000000000000000000000000F9
S315600001A000000000000000000000000000000000E9
S315600001B000000000000000000000000000000000D9
S315600001C000010000001000000000000000000000B8
S315600001D000000000000000000000000000000000B9
S315600001E000000000000000000000000000000000A9
S315600001F00000000000000000000000000000000099
S31560000200FFFFFFFFFFFFFFFFFFFFFFFFFFFFFFFF98
S31560001000D100204100200060000000003010006028
S31560001010201000600010006000000000000000006A
S31560001020000000600000000400000000FFFFFFFFFA
S31560001030D2043041CC03AC04400FC068FFFFFFFF11
S31560001040400FC06CFFFFFFFF400FC070FFFFFFFF48
S31560001050400FC074FFFFFFFF400FC078FFFFFFFF28
S31560001060400FC07CFFFFFFFF400FC080FFFFFFFF08
S31560001070400D803000002001400D8100001E000000
S31560001080400FC01400010D40401F80140000000096
S31560001090401F801800000000401F801C00000000F8
S315600010A0401F802000000000401F802400000000D8
S315600010B0401F802800000000401F802C00000000B8
S315600010C0401F803000000000401F80340000000098
S315600010D0401F803800000000401F803C0000000078
S315600010E0401F804000000000401F80440000000058
S315600010F0401F804800000000401F804C0000000038
S31560001100401F805000000000401F80540000000017
S31560001110401F805800000000401F805C00000000F7
S31560001120401F806000000000401F806400000000D7
S31560001130401F806800000000401F806C00000000B7
S31560001140401F807000000000401F80740000000097
S31560001150401F807800000000401F807C0000000077
S31560001160401F808000000000401F80840000000057
S31560001170401F808800000000401F808C0000000037
S31560001180401F809000000000401F80940000000017
S31560001190401F809800000000401F809C00000000F7
S315600011A0401F80A000000000401F80A400000000D7
S315600011B0401F80A800000000401F80AC00000000B7
S315600011C0401F80B000000010401F80B40000000087
S315600011D0401F80B800000000401F8204000110F923
S315600011E0401F8208000110F9401F820C000110F9AF
S315600011F0401F8210000110F9401F8214000110F98F
S31560001200401F8218000110F9401F821C000110F96E
S31560001210401F8220000110F9401F8224000110F94E
S31560001220401F8228000110F9401F822C000110F92E
S31560001230401F8230000110F9401F8234000110F90E
S31560001240401F8238000110F9401F823C000110F9EE
S31560001250401F8240000110F9401F8244000110F9CE
S31560001260401F8248000110F9401F824C000110F9AE
S31560001270401F8250000110F9401F8254000110F98E
S31560001280401F8258000110F9401F825C000110F96E
S31560001290401F8260000110F9401F8264000110F94E
S315600012A0401F8268000110F9401F826C000110F92E
S315600012B0401F8270000110F9401F8274000110F90E
S315600012C0401F8278000110F9401F827C000110F9EE
S315600012D0401F8280000110F9401F8284000110F9CE
S315600012E0401F8288000110F9401F828C000110F9AE
S315600012F0401F8290000110F9401F8294000110F98E
S31560001300401F8298000110F9401F829C000110F96D
S31560001310401F82A0000110F9401F82A4000110F94D
S31560001320401F82A8000110F9402F00001000000441
S31560001330402F000800030524402F000C06030524F7
S31560001340402F00108000001B402F00148200001BFD
S31560001350402F00188400001B402F001C8600001BD5
S31560001360402F002090000021402F0024A00000198B
S31560001370402F0028A8000017402F002CA900001B52
S31560001380402F003000000021402F0004000079A8A3
S31560001390402F004000000F31402F00440065292295
S315600013A0402F004800010920402F004C50210A08B8
S315600013B0402F008000000021402F0084008888882C
S315600013C0402F009400000002402F009800000000AB
S315600013D0402F009080000000402F009CA55A000F0F
S315600013E0CF000C1C402F003C00000001CC00140410
S315600013F0402F009080000000402F009CA55A000CF2
S31560001400CF000C1C402F003C00000001CC001404EF
S31560001410402F009080000000402F009CA55A000CD1
S31560001420CF000C1C402F003C00000001CC001C04C7
S31560001430402F00A000000033402F00908000000085
S31560001440402F009CA55A000ACF000C1C402F003C80
S3156000145000000001CC000C04402F004C50210A090A
S31560001460FFFFFFFFFFFFFFFFFFFFFFFFFFFFFFFF26
S31560001470FFFFFFFFFFFFFFFFFFFFFFFFFFFFFFFF16
S31560001480FFFFFFFFFFFFFFFFFFFFFFFFFFFFFFFF06
S31560001490FFFFFFFFFFFFFFFFFFFFFFFFFFFFFFFFF6
S31560002000000002200523006075F120203709212099
S3156000201077F1202079F120207BF12020000000005C
S315600020200000000000000000000000007DF120209C
S315600020307FF120200000000081F120209D332020C8
S3156000204085F120208DF1202095F120209DF1202022
S31560002050A5F12020ADF12020B5F12020BDF1202092
S31560002060C5F12020CDF12020D5F12020DDF1202002
S31560002070E5F12020EDF12020F5F12020FDF1202072
S3156000208005F220200DF2202015F220201DF22020DE
S31560002090D57C0000E97C0000FD7C0000117D00001D
S315600020A0257D0000397D00004D7D0000617D0000CA
S315600020B025F220202DF2202035F220203DF220202E
S315600020C045F220204DF2202055F220205DF220209E
S315600020D065F220206DF2202075F220207DF220200E
S315600020E085F220208DF2202095F220209DF220207E
S315600020F0A5F22020ADF22020B5F22020BDF22020EE
S31560002100C5F22020CDF22020D5F22020DDF220205D
S31560002110E5F22020EDF22020F5F22020FDF22020CD
S3156000212005F320200DF3202015F320201DF3202039
S3156000213025F320202DF3202035F320203DF32020A9
S3156000214045F320204DF3202055F320205DF3202019
S3156000215065F320206DF3202075F320207DF3202089
S3156000216085F320208DF3202095F320209DF32020F9
S31560002170A5F32020ADF32020B5F32020BDF3202069
S31560002180DF880000F3880000078900001B890000D3
S315600021902F89000043890000578900006B89000081
S315600021A07F89000093890000C5F32020CDF32020AD
S315600021B0D5F32020DDF32020E5F32020EDF3202069
S315600021C0F5F32020FDF3202005F420200DF42020D7
S315600021D0937D0000A77D000015F420201DF42020CB
S315600021E025F420202DF4202035F420203DF42020F5
S315600021F045F420204DF4202055F420205DF4202065
S3156000220065F420206DF4202075F420207DF42020D4
S3156000221085F420208DF4202095F420209DF4202044
S31560002220A5F42020ADF42020B5F42020BDF42020B4
S31560002230C5F42020CDF42020D5F42020DDF4202024
S31560002240E5F42020EDF42020F5F42020FDF4202094
S3156000225005F520200DF5202015F520201DF5202000
S3156000226025F520202DF5202035F520203DF5202070
S3156000227045F520204DF5202055F520205DF52020E0
S3156000228065F520206DF5202075F520207DF5202050
S3156000229085F520208DF5202095F520209DF52020C0
S315600022A0DC07026000000020F8080000E8240060F7
S315600022B000000000F8890000E0AE00600000202009
S315600022C0FC580100DC07026000000080000000008E
S315600022D0DC070260000022200000000000090020E8
S315600022E04C8F0000F889000000000000FC58212097
S315600022F000000000000000800000000000002220B6
S315600023000000000072B6104B83F3088800F03CF8BA
S315600023100E4B07E003F10C049A685968186800F0E0
S315600023201BF823460A4A9342F4D306E01C465968D2
S3156000233054F8080B00F01FF82346064A9342F5D37B
S3156000234062B600F0CDF8FEE700000220A022006031
S31560002350DC22006004230060002393420AD210B49A
S3156000236050F8044B41F8044B04339342F8D35DF8BC
S31560002370044B70477047002303E0002240F8042BAB
S3156000238004338B42F9D3704780B500AF484BD3F81E
S315600023908830474A43F47003C2F88830444B454A54
S315600023A09A60454B1B899BB2434A23F001039BB25B
S315600023B01381424B1B899BB2404A23F001039BB2B7
S315600023C013813D4B1B889BB203F00403002B07D09F
S315600023D0394B1B889BB2384A23F004039BB21380A7
S315600023E0364B1B889BB203F00403002B07D0334B9C
S315600023F01B889BB2314A23F004039BB21380304B97
S315600024001B6803F40053002B03D02D4B2D4A5A60F2
S3156000241007E02B4B4CF220525A60294B4DF628129E
S315600024205A60274B4FF6FF729A60254B1B6823F064
S31560002430A003234A43F020031360234B1B6803F079
S315600024400103002B05D0204B1B681F4A23F00103B4
S315600024501360174B5B6903F40033B3F5003F22D07A
S31560002460134B5B6903F40033002B1BD1BFF34F8F13
S3156000247000BFBFF36F8F00BF0D4B0022C3F8502221
S31560002480BFF34F8F00BFBFF36F8F00BF084B5B6911
S31560002490074A43F400335361BFF34F8F00BFBFF366
S315600024A06F8F00E000BF00F011F800BF80BD00BF75
S315600024B000ED00E00020006000800B4000000D4051
S315600024C000C00B4020C528D910E000E080B400AF02
S315600024D000BFBD465DF8047B7047FFFFFFFFFFFF4F
S30D600024E05FF800F039AE202020
S315600024E880B586B002AFF860B9607A603B607B6899
S315600024F80093BB68FA683968044805F066FFBA68ED
S31560002508F968386805F0FAFD00BEFDE7502C212011
S3156000251880B485B000AFF860B9601346FB80FB688D
S31560002528002B0ED0BB68002B0BD0FB8843F22352DE
S31560002538934207D0FB88002B04D1054B01221A7001
S3156000254800E000BF1437BD465DF8047B704700BFE6
S315600025583A98002080B584B000AF786043F2215382
S31560002568FB81012279680E4808F094F90346FB81DD
S31560002578FB89002B02D00123FB810CE0094B1B78F9
S31560002588DBB283F00103DBB2002BF7D1054B0022E7
S315600025981A700023FB81FB8918461037BD4680BD3B
S315600025A8F04000203A98002080B588B000AF786087
S315600025B8396000237B617B68002BFCD03B68002B6D
S315600025C8FCD005F0A8FDF860374BD3F83021364BC0
S315600025D8D3F834319A4216D001237B61324BD3F853
S315600025E83021314BD3F82C311A442F4BD3F8343180
S315600025F8D31A2D4AD2F82C21B3FBF2F101FB02F271
S315600026089B1ABB6101E00023BB61274BD3F82C21E1
S31560002618BB69D31A013BBB61BA693B689A4205D26A
S31560002628F86805F089FD4FF0FF3338E000233B6119
S315600026381EE03B697A681A441B4BD3F83031591C43
S315600026481948C0F830111178174A13440A4683F8B6
S315600026583821154BD3F83021134BD3F82C319A42D5
S3156000266803D3114B0022C3F830213B6901333B6128
S315600026783B683A699A42DCDB0023FB617B69002B85
S3156000268803D1094805F068FDF861F86805F054FD5E
S31560002698FB69002B01D13B6801E04FF0FF33184618
S315600026A82037BD4680BD00BF6039002080B588B040
S315600026B800AF7860396043F22153FB823B68BB61A7
S315600026C87B68002BFCD03B68002B01D1002368E0B7
S315600026D8364B1B68002B01D1002362E005F01BFD19
S315600026E83861334BD3F83021314BD3F834319A42C1
S315600026F814D02F4BD3F830212D4BD3F82C311A44F4
S315600027082B4BD3F83431D31A294AD2F82C21B3FB90
S31560002718F2F101FB02F29B1AFB6101E00023FB6107
S31560002728234BD3F82C21FB69D31A013BFB61FB6968
S31560002738002B21D0FA69BB699A4206D21C4BD3F8A2
S315600027482C31013BBA699A4216D3FA69BB699A4237
S3156000275801D9BB69FB613A68BB69D31A7A681344C5
S31560002768F9691846FFF720FFF860FB68002B03DD60
S31560002778FB68BA69D31ABB61386905F0DDFCBB69C9
S31560002788002B06D000F03CF90346FB82FB8A002B3F
S3156000279803D1BB69002BA1D100E000BF3A68BB69D1
S315600027A8D31A18462037BD4680BD00BF1C4100209D
S315600027B86039002080B584B000AF78607B68002BF4
S315600027C8FCD00E4B1B68002B02D14FF0FF3311E093
S315600027D87868FFF7BFFE0346002B07D10123FB602D
S315600027E800220121786805F083FD02E04FF0FF338F
S315600027F8FB60FB6818461037BD4680BD1C4100204B
S3156000280880B58EB000AFB9607B600346FB73134634
S31560002818BB730023FB867B683B61BB687B610023D7
S315600028283B7600237B760123BB760123FB76002368
S315600028383B7700237B77FB7BBB770023FB77002303
S3156000284887F8203007F1240310220021184608F083
S315600028583BFBBB7B87F82C30434B7B624FF4806332
S31560002868BB620023FB85BB7B012B03D107F11003F9
S315600028783B631EE0BB7B022B03D143F22153FB86ED
S3156000288817E0BB7B032B03D143F22153FB8610E091
S31560002898BB7B042B03D143F22153FB8609E0BB7B48
S315600028A8092B03D143F22153FB8602E043F22153FD
S315600028B8FB86FB8E43F22152934250D040F2BC72A3
S315600028C800212A4808F000FB284B4FF40072C3F831
S315600028D82C21264B264A1A60244B1B6807F12402D2
S315600028E81146184605F052F90346FB86FB8E002B07
S315600028F8FCD1204B1B781D4B1B681F49184605F0F9
S31560002908A3F90346FB86FB8E002BFCD1174A1B49AD
S31560002918194805F029FB154B1B681949184605F037
S3156000292893F90346FB86FB8E002BFCD10F4A1549AB
S31560002938134805F019FB0D4B1B681349184605F03B
S31560002948EDF90346FB86FB8E002BFCD1074A0F493F
S315600029580D4805F029FB054B1B680D4A1360FB8E75
S3156000296818463837BD4680BD983C0020603900203F
S31560002978643900203A98002098400020415D0000A4
S31560002988C4400020BB5D0000F0400020310000001C
S315600029981C41002080B500AF134B1B68002B05D087
S315600029A8124805F089F9124805F086F90E4B1B683E
S315600029B8002B02D00F4805F0F1F90B4B1B68002B72
S315600029C80DD0094B1B68184607F01BFF0346002B02
S315600029D805D1054B00221A60074B00221A60074B87
S315600029E81B780023184680BD60390020C44000204B
S315600029F898400020F04000201C4100203A980020B2
S31560002A0880B400AF00BF074BD3F83021054BD3F82D
S31560002A1834319A42F7D100231846BD465DF8047BE7
S31560002A28704700BF6039002080B5A4B000AF7860F9
S31560002A3839600023C7F888300023C7F88C30002334
S31560002A48BB6007F10C037C220021184608F03CFAAB
S31560002A580E4B1B68002B12D007F108020C4B396825
S31560002A68786806F0FDFAC7F88800D7F8882007F175
S31560002A78080311461846FFF719FEC7F88C00D7F801
S31560002A888C3018469037BD4680BD00BF1C4100207B
S31560002A98855E000080B5A6B000AF78603960002317
S31560002AA8C7F894300023C7F890300023FB6007F11D
S31560002AB810037C220021184608F006FA164B1B689C
S31560002AC8002B01D1002323E007F10C02134B396870
S31560002AD8786806F0C5FAC7F89400114805F090F9C9
S31560002AE8D7F8942007F10C0319460D4807F0B0FE95
S31560002AF80346C7F88C30D7F88C30002B02D1D7F84C
S31560002B08943001E04FF0FF33C7F89030D7F8903033
S31560002B1818469837BD4680BD1C410020855E00007A
S31560002B289840002080B487B000AF78607B681B68E7
S31560002B387B6100233B610023FB734CE07B690133B7
S31560002B487B617B691B78203B102B3ED801A252F82B
S31560002B5823F000BFCD060000EB060000EB06000080
S31560002B68E1060000EB060000EB060000EB0600003D
S31560002B78EB060000EB060000EB060000EB06000023
S31560002B88C3060000EB060000B9060000EB0600006D
S31560002B98EB060000D70600003B6943F001033B6182
S31560002BA819E03B6943F002033B6114E03B6943F07B
S31560002BB804033B610FE03B6943F008033B610AE0AD
S31560002BC83B6943F010033B6105E07B69013B7B6130
S31560002BD80123FB7300BFFB7B83F00103DBB2002B91
S31560002BE8ACD17B687A691A603B6918461C37BD4662
S31560002BF85DF8047B704700BF80B400AF074BD3F81D
S31560002C08703203F01003002B02D1054B1B6800E0FD
S31560002C18044B1846BD465DF8047B704700800D403E
S31560002C28B895002000366E0180B582B000AF364B8D
S31560002C385B6903F00073002B2BD0334B9B6903F45D
S31560002C484053B3F5005F11D0B3F5005F13D8002B7E
S31560002C5803D0B3F5805F05D00DE02C4800F018FB73
S31560002C6878600BE0FFF7C8FF786007E0284800F057
S31560002C780FFB786002E000237B6000BF224B5B6934
S31560002C88DB0E03F0070301337A68B2FBF3F37B606C
S31560002C9834E01D4B9B6903F44023B3F5402F1DD0E8
S31560002CA8B3F5402F27D8B3F5002F12D0B3F5002F10
S31560002CB821D8002B03D0B3F5802F05D01BE014482C
S31560002CC800F0E6FA786019E0022000F0FBFC786014
S31560002CD814E0002000F0F6FC78600FE00D2000F0AC
S31560002CE8D7FA0246084B1B6903F007030133B2FBA8
S31560002CF8F3F37B6002E000237B6000BF7B681846C5
S31560002D080837BD4680BD00BF00C00F400D001000EB
S31560002D180D00300080B582B000AF0C4BDB6803F065
S31560002D280103002B02D0012B05D007E0084800F00C
S31560002D38AFFA786005E0074B7B6002E000237B60B2
S31560002D4800BF7B6818460837BD4680BD00C00F4087
S31560002D580D00100000366E0180B582B000AF0346E4
S31560002D68FB71FB7983F00103DBB2002B05D1144BB1
S31560002D78144AC0211448FFF7B3FB144B4FF0804246
S31560002D88C3F8582100BF114BD3F8703203F480336F
S31560002D98002BF8D00D4B4FF48032C3F8542100BF96
S31560002DA80A4BD3F8503103F40043002BF8D0074B95
S31560002DB84FF48032C3F8582100BF0837BD4680BD3E
S31560002DC854492120784921206449212000800D40FA
S31560002DD880B483B000AF0346FB71FB79002B04D146
S31560002DE8074B1022C3F8742203E0054B1022C3F880
S31560002DF8782200BF0C37BD465DF8047B704700BF7C
S31560002E0800800D4080B400AF064BD3F87032054A97
S31560002E1843F00103C2F8703200BFBD465DF8047B1B
S31560002E28704700BF00800D4080B500AFFFF7FCFE1D
S31560002E380246054B5B699B0A03F007030133B2FB45
S31560002E48F3F3184680BD00BF00C00F4080B582B05E
S31560002E5800AF144B5B6903F04003002B0FD0114B96
S31560002E685B6903F08003002B04D0012000F0CCFCE2
S31560002E78786007E0022000F025FC786002E0FFF742
S31560002E88D3FE7860074B5B691B0C03F007030133BD
S31560002E987A68B2FBF3F37B607B6818460837BD46F1
S31560002EA880BD00BF00C00F4080B500AFFFF7BCFF14
S31560002EB80246054B5B691B0A03F003030133B2FB49
S31560002EC8F3F3184680BD00BF00C00F4080B582B0DE
S31560002ED800AF0D4BDB6903F04003002B03D0FFF70F
S31560002EE88BFE786002E0FFF7DFFF7860064BDB69F0
S31560002EF803F03F0301337A68B2FBF3F37B607B68C8
S31560002F0818460837BD4680BD00C00F4080B584B0FE
S31560002F1800AF0346FB71FB791A2B00F2BA8001A257
S31560002F2852F823F0B10A0000B10A0000B90A00009D
S31560002F38C10A0000C90A0000D10A0000D90A0000C7
S31560002F48E10A0000EB0A0000F50A0000FF0A00002B
S31560002F58090B0000130B00004F0B0000590B000013
S31560002F68630B00006D0B0000770B0000810B0000FF
S31560002F788B0B0000950B00009F0B0000A90B00004F
S31560002F881D0B0000250B0000310B00003D0B0000F7
S31560002F98FFF74AFFF8607FE0FFF758FFF8607BE0CD
S31560002FA8FFF782FFF86077E0FFF790FFF86073E05D
S31560002FB8FFF722FEF8606FE006F070FAF8606BE0E3
S31560002FC80D2000F065F9F86066E0364800F060F9B3
S31560002FD8F86061E0002000F017FCF8605CE0012012
S31560002FE800F012FCF86057E0022000F00DFCF86073
S31560002FF852E0032000F008FCF8604DE0FFF78AFE17
S31560003008F86049E0FFF786FE03469B08FB6043E0ED
S31560003018FFF780FE0346DB08FB603DE0FFF77AFEBC
S315600030280346214AA2FB03239B08FB6034E01F4842
S3156000303800F02EF9F8602FE01D4800F029F9F860D5
S315600030482AE0002000F03EFBF86025E0012000F051
S3156000305839FBF86020E0022000F034FBF8601BE0E2
S31560003068032000F02FFBF86016E0124800F010F914
S31560003078F86011E0104800F00BF9F8600CE00F48B2
S3156000308800F006F9F86007E00D4800F001F9F8600D
S3156000309802E00023FB6000BFFB6818461037BD4698
S315600030A880BD00BF0D001000ABAAAAAA0D002000C3
S315600030B80D0030000D00E0001500E0000D00700006
S315600030C80D00A00080B483B000AF7860154B1B6814
S315600030D823F4E0327B681B799B039BB21343114A46
S315600030E843F4803313600F4B1A680F4B13407A68AA
S315600030F8126802F07F0213430A4A43F400531360CE
S3156000310800BF084B1B68002BFBDA064B1B68054A99
S3156000311823F48033136000BF0C37BD465DF8047B2B
S31560003128704700BF00800D4080CFFFFF80B483B03A
S3156000313800AF7860224B1B6B23F4E0327B681B7B05
S315600031489B039BB213431E4A43F4803313631C4BA1
S315600031581A6B1C4B13407A68127802F0010213430B
S31560003168174A43F4005313637B685B68144A23F079
S31560003178404313657B689B68114A23F04043136696
S315600031887B685B8AC3F30E027B681B7CDB039BB29E
S315600031981A437B68DB891B04094913430B6400BF28
S315600031A8074B1B6B002BFBDA054B1B6B044A23F49E
S315600031B88033136300BF0C37BD465DF8047B7047E8
S315600031C800800D40FECFFFFF80B400AF034B0022A6
S315600031D81A6200BFBD465DF8047B704700800D40EB
S315600031E880B400AF044B4FF480521A6700BFBD46E7
S315600031F85DF8047B704700BF00800D4080B485B0E1
S3156000320800AF78607B689B7803F00303FB601E4B16
S31560003218D3F8E03023F4E0327B68DB789B039BB21B
S315600032281343194A43F48033C2F8E0307B681B784D
S31560003238002B03D0FB6843F40053FB607B685B7824
S31560003248002B03D0FB6843F40013FB600E4BD3F8E6
S31560003258E0200E4B13400C49FA681343C1F8E0307E
S3156000326800BF094BD3F8E030002BFADA064BD3F8E7
S31560003278E030054A23F48033C2F8E03000BF1437E3
S31560003288BD465DF8047B704700800D40FCEFFFFF8C
S3156000329880B586B000AF78607968904806F020F906
S315600032A8034683F00103DBB2002B01D00023C6E19D
S315600032B879688A4806F032F978617968874806F04D
S315600032C8F6F80346002B01D07B69B8E17B68844A2F
S315600032D8934200F09F817B68814A934200F2AB81FA
S315600032E87B68804A934200F089817B687D4A934275
S315600032F800F2A1817B687C4A934200F007817B6873
S31560003308794A934200F297817B68784A93426ED0F5
S315600033187B68764A934200F28E817B68744A934250
S3156000332820D07B68724A934200F285817B68714A35
S31560003338934200F072817B686E4A934200F27B8109
S315600033487B680D2B04D07B686B4A934241D072E14F
S31560003358624B1B6803F07F037A6902FB03F35B0821
S315600033687B616BE17B6907EE903AB8EE676B5B4B06
S315600033781B6D07EE903AB8EE677B26EE077B87ED06
S31560003388027B564B1B6E07EE903AB8EE676B97ED6D
S31560003398025B85EE067B87ED027B504B1B6B03F069
S315600033A80103002B05D07B69162202FB03F37B61C0
S315600033B805E07A6913469B0013449B007B6197ED91
S315600033C8027BFCEEC77B17EE902A7B6913447B6110
S315600033D834E1424B1B6903F00203002B01D016222D
S315600033E800E014227B6902FB03F37B6126E13B4B19
S315600033F81B6F03F07F033B617B6907EE903AB8EE7B
S31560003408676B364BD3F8803007EE903AB8EE677B39
S3156000341826EE077B87ED027B304BD3F8903007EEBC
S31560003428903AB8EE676B97ED025B85EE067B87EDA3
S31560003438027B7B693A6902FB03F397ED027BFCEE3C
S31560003448C77B17EE902A13447B61244B1B6F03F4EA
S31560003458C013B3F5801F17D0B3F5801F0DD8002BA6
S3156000346803D0B3F5002F04D007E07B699B087B6126
S315600034780BE07B695B087B6107E0204B204A40F2E2
S315600034880C412048FFF72CF800BF144BD3F8702185
S315600034981D4B13401C4A93420ED01B4A934213D8C5
S315600034A8B3F5000F17D0B3F5000F0DD8002B12D067
S315600034B8B3F5004F04D007E07B699B087B610BE09E
S315600034C87B695B087B6107E00C4B0D4A4FF48461AE
S315600034D80C48FFF705F800BFB0E000BF00800D405C
S315600034E81500E0000D00E0000D00A0000D00700062
S315600034F80D0030000D0020000D00100070492120DD
S315600035089049212064492120008080004E4BD3F8E1
S31560003518A03003F07F033B617B6907EE903AB8EE13
S31560003528676B494BD3F8B03007EE903AB8EE677BD5
S3156000353826EE077B87ED027B434BD3F8C03007EE58
S31560003548903AB8EE676B97ED025B85EE067B87ED82
S31560003558027B7B693A6902FB03F397ED027BFCEE1B
S31560003568C77B17EE902A13447B61374BD3F8A0309C
S3156000357803F4C013B3F5801F17D0B3F5801F0DD8B9
S31560003588002B03D0B3F5002F04D007E07B699B08B6
S315600035987B610BE07B695B087B6107E02B4B2C4A00
S315600035A840F24D412B48FEF79BFF00BF264BD3F8F0
S315600035B8703103F04043B3F1404F0ED0B3F1404F42
S315600035C813D8B3F1004F17D0B3F1004F0DD8002BC5
S315600035D812D0B3F1804F04D007E07B699B087B610A
S315600035E80BE07B695B087B6107E0184B184A40F281
S315600035F861411848FEF774FF00BF1FE0124BD3F80D
S31560003608E03003F003033B61134A3B6952F8233009
S315600036187B6113E0114B7B6110E00B4B1B6A03F077
S315600036280203002B01D0162200E014227B6902FBFC
S3156000363803F37B6102E000237B6100BF7B69184668
S315600036481837BD4680BD00BF00800D4070492120F7
S315600036589049212064492120A449212040787D0190
S3156000366880B485B000AF03460A46FB711346BB714A
S31560003678FB79FB60124BD3F80021FB68DB00BF21A6
S3156000368801FA03F3DB431340BB60FB68DB0080226F
S315600036989A400B49BB681343C1F80031BB7903F004
S315600036A83F02FB68DB009A400549BB681343C1F8D3
S315600036B8003100BF1437BD465DF8047B704700BF14
S315600036C800800D402DE9B04F96B000AF034687F8ED
S315600036D847304B48FFF7DCFD78657B6D00229846DE
S315600036E8914642464B464FF000004FF00001D90024
S315600036F841EA5271D00002460B4612EB080443EBCE
S31560003708090514EB040A45EB050B54465D46C7E903
S31560003718124597F84730032B69D801A252F823F06F
S31560003728511200007F120000AF120000DF12000085
S31560003738344BD3F800310022BB63FA63BB6B03F0EA
S315600037483F033B6300237B63D7E90C23D7E9120168
S3156000375807F0BEFB02460B4613467B654AE0294BDB
S31560003768D3F800311B0A0022BB62FA62BB6A03F017
S315600037783F033B6200237B62D7E90823D7E912013E
S3156000378807F0A6FB02460B4613467B6532E01D4BE7
S31560003798D3F800311B0C0022BB61FA61BB6903F0E8
S315600037A83F033B6100237B61D7E90423D7E9120114
S315600037B807F08EFB02460B4613467B651AE0114BF3
S315600037C8D3F800311B0E0022BB60FA60BB6803F0B9
S315600037D83F033B6000237B60D7E90023D7E91201EA
S315600037E807F076FB02460B4613467B6502E000232C
S315600037F87B6500BF7B6D18465837BD46BDE8B08F00
S315600038080D00300000800D402DE9B04F96B000AF36
S31560003818034687F847304B48FFF73AFD78657B6D76
S3156000382800229846914642464B464FF000004FF0BC
S315600038380001D90041EA5271D00002460B4612EBEC
S31560003848080443EB090514EB040A45EB050B5446DB
S315600038585D46C7E9124597F84730032B69D801A238
S3156000386852F823F095130000C3130000F313000009
S3156000387823140000344BD3F8F0300022BB63FA639C
S31560003888BB6B03F03F033B6300237B63D7E90C23E1
S31560003898D7E9120107F01CFB02460B4613467B6507
S315600038A84AE0294BD3F8F0301B0A0022BB62FA6261
S315600038B8BB6A03F03F033B6200237B62D7E90823B8
S315600038C8D7E9120107F004FB02460B4613467B65EF
S315600038D832E01D4BD3F8F0301B0C0022BB61FA6155
S315600038E8BB6903F03F033B6100237B61D7E904238F
S315600038F8D7E9120107F0ECFA02460B4613467B65D8
S315600039081AE0114BD3F8F0301B0E0022BB60FA6048
S31560003918BB6803F03F033B6000237B60D7E9002365
S31560003928D7E9120107F0D4FA02460B4613467B65BF
S3156000393802E000237B6500BF7B6D18465837BD469D
S31560003948BDE8B08F0D00100000800D4080B584B0D2
S3156000395800AF786039603B681F2B06D9214B224A35
S3156000396840F2DD212148FEF7BBFD0023FB607A6843
S315600039783B685B011A4441F21C0313441B889BB2E3
S3156000398803F080039BB2002B02D00023FB6024E087
S315600039987A683B685B011A4441F2160313441B8834
S315600039A89BB21BB2002B0CDA7A683B685B011A443F
S315600039B841F2160313441B889BB2C3F30803FB60EA
S315600039C80BE07A683B685B011A4441F216031344BC
S315600039D81B889BB2C3F30E03FB60FB68184610375F
S315600039E8BD4680BDE4492120544A2120D84921207A
S315600039F880B584B000AF786039603B681F2B06D904
S31560003A08194B1A4A40F201311948FEF769FD00233D
S31560003A18FB607A683B685B011A4441F21C031344F5
S31560003A281B889BB2DB0903F00103FA681343FB604A
S31560003A387B68DA6A3B6822FA03F35B0003F00203E9
S31560003A48FA681343FB607B685A6A3B6822FA03F399
S31560003A589B0003F00403FA681343FB60FB6818468F
S31560003A681037BD4680BD00BFE4492120744A212035
S31560003A78D849212090B589B000AF78607B68002B63
S31560003A8806D16D4B6D4A4FF4AF616D48FEF728FD60
S31560003A987B689B687A68127CDA777B689A687B6849
S31560003AA81B7C5B011A4441F21C0313441B889BB2BE
S31560003AB803F08003002B14BF01230023BB767B68C9
S31560003AC8DB68002B0DD17B681B68002B00F0AF808C
S31560003AD87B681C687B685968BA7E00237868A0474B
S31560003AE8A5E07B689A687B681B7C5B011A4441F297
S31560003AF8180313441B687B617B689A687B681B7C28
S31560003B085B011A4441F21C0313441B889BB203F001
S31560003B181003002B14BF01230023FB747B68DB684A
S31560003B281A467B699B1A7B617B695B09FB60BB7E76
S31560003B38002B02D0FB68FB760EE0FB68002B04D0F6
S31560003B48FB68DBB2013BDBB205E07B681B7D5BB2E1
S31560003B58DBB2013BDBB2FB767B685B7C5AB297F9DA
S31560003B681B309A4219D17B68DB7CFB727B681B7DB4
S31560003B78BB7297F90B2097F90A309A4205D0FB7CFD
S31560003B8883F00103DBB2002B04D07B68DB7C5BB27D
S31560003B98FB611AE00023FB6117E0FB7E7A68527CC2
S31560003BA852B29B1AFB61FB69002B06DA7B681B7DA8
S31560003BB85BB21A46FB691344FB61BB7E002B04D0DB
S31560003BC87B689B687A68127C1A7797F91B207B68F2
S31560003BD85A747B68DB7C5BB2DAB2FB69DBB2D31AF8
S31560003BE8DBB25AB27B68DA747B681B68002B07D035
S31560003BF87B681C687B685968FB69BA7E7868A047E9
S31560003C08BB7E002B13D07B689A687B681B7C5B0144
S31560003C181A4441F21C0313441B889BB203F0100339
S31560003C28002B04D07B689B687A68127C1A7700BF81
S31560003C382437BD4690BD00BF444A2120904A2120C2
S31560003C48D849212080B500AF00211048FFF7D0FE83
S31560003C58034603F00403002B04D00D4B1B6818467B
S31560003C68FFF708FF10210948FFF7C2FE034603F075
S31560003C780403002B04D0064B1B6C1846FFF7FAFEAC
S31560003C88BFF34F8F00BF00BF80BD00BF00800E40EE
S31560003C98C095002080B500AF01211048FFF7A8FE47
S31560003CA8034603F00403002B04D00D4B5B681846EB
S31560003CB8FFF7E0FE11210948FFF79AFE034603F075
S31560003CC80403002B04D0064B5B6C1846FFF7D2FE44
S31560003CD8BFF34F8F00BF00BF80BD00BF00800E409E
S31560003CE8C095002080B500AF02211048FFF780FE1E
S31560003CF8034603F00403002B04D00D4B9B6818465B
S31560003D08FFF7B8FE12210948FFF772FE034603F073
S31560003D180403002B04D0064B9B6C1846FFF7AAFEDB
S31560003D28BFF34F8F00BF00BF80BD00BF00800E404D
S31560003D38C095002080B500AF03211048FFF758FEF4
S31560003D48034603F00403002B04D00D4BDB681846CA
S31560003D58FFF790FE13210948FFF74AFE034603F072
S31560003D680403002B04D0064BDB6C1846FFF782FE73
S31560003D78BFF34F8F00BF00BF80BD00BF00800E40FD
S31560003D88C095002080B500AF04211048FFF730FECB
S31560003D98034603F00403002B04D00D4B1B69184639
S31560003DA8FFF768FE14210948FFF722FE034603F071
S31560003DB80403002B04D0064B1B6D1846FFF75AFE0A
S31560003DC8BFF34F8F00BF00BF80BD00BF00800E40AD
S31560003DD8C095002080B500AF05211048FFF708FEA2
S31560003DE8034603F00403002B04D00D4B5B691846A9
S31560003DF8FFF740FE15210948FFF7FAFD034603F071
S31560003E080403002B04D0064B5B6D1846FFF732FEA1
S31560003E18BFF34F8F00BF00BF80BD00BF00800E405C
S31560003E28C095002080B500AF06211048FFF7E0FD79
S31560003E38034603F00403002B04D00D4B9B69184618
S31560003E48FFF718FE16210948FFF7D2FD034603F06F
S31560003E580403002B04D0064B9B6D1846FFF70AFE39
S31560003E68BFF34F8F00BF00BF80BD00BF00800E400C
S31560003E78C095002080B500AF07211048FFF7B8FD50
S31560003E88034603F00403002B04D00D4BDB69184688
S31560003E98FFF7F0FD17210948FFF7AAFD034603F06F
S31560003EA80403002B04D0064BDB6D1846FFF7E2FDD2
S31560003EB8BFF34F8F00BF00BF80BD00BF00800E40BC
S31560003EC8C095002080B500AF08211048FFF790FD27
S31560003ED8034603F00403002B04D00D4B1B6A1846F7
S31560003EE8FFF7C8FD18210948FFF782FD034603F06E
S31560003EF80403002B04D0064B1B6E1846FFF7BAFD69
S31560003F08BFF34F8F00BF00BF80BD00BF00800E406B
S31560003F18C095002080B500AF09211048FFF768FDFD
S31560003F28034603F00403002B04D00D4B5B6A184666
S31560003F38FFF7A0FD19210948FFF75AFD034603F06C
S31560003F480403002B04D0064B5B6E1846FFF792FD00
S31560003F58BFF34F8F00BF00BF80BD00BF00800E401B
S31560003F68C095002080B500AF0A211048FFF740FDD4
S31560003F78034603F00403002B04D00D4B9B6A1846D6
S31560003F88FFF778FD1A210948FFF732FD034603F06B
S31560003F980403002B04D0064B9B6E1846FFF76AFD98
S31560003FA8BFF34F8F00BF00BF80BD00BF00800E40CB
S31560003FB8C095002080B500AF0B211048FFF718FDAB
S31560003FC8034603F00403002B04D00D4BDB6A184646
S31560003FD8FFF750FD1B210948FFF70AFD034603F06A
S31560003FE80403002B04D0064BDB6E1846FFF742FD30
S31560003FF8BFF34F8F00BF00BF80BD00BF00800E407B
S31560004008C095002080B500AF0C211048FFF7F0FC82
S31560004018034603F00403002B04D00D4B1B6B1846B4
S31560004028FFF728FD1C210948FFF7E2FC034603F069
S315600040380403002B04D0064B1B6F1846FFF71AFDC6
S31560004048BFF34F8F00BF00BF80BD00BF00800E402A
S31560004058C095002080B500AF0D211048FFF7C8FC59
S31560004068034603F00403002B04D00D4B5B6B184624
S31560004078FFF700FD1D210948FFF7BAFC034603F068
S315600040880403002B04D0064B5B6F1846FFF7F2FC5F
S31560004098BFF34F8F00BF00BF80BD00BF00800E40DA
S315600040A8C095002080B500AF0E211048FFF7A0FC30
S315600040B8034603F00403002B04D00D4B9B6B184694
S315600040C8FFF7D8FC1E210948FFF792FC034603F068
S315600040D80403002B04D0064B9B6F1846FFF7CAFCF7
S315600040E8BFF34F8F00BF00BF80BD00BF00800E408A
S315600040F8C095002080B500AF0F211048FFF778FC07
S31560004108034603F00403002B04D00D4BDB6B184603
S31560004118FFF7B0FC1F210948FFF76AFC034603F066
S315600041280403002B04D0064BDB6F1846FFF7A2FC8E
S31560004138BFF34F8F00BF00BF80BD00BF00800E4039
S31560004148C095002080B483B000AF0346FB80B7F902
S315600041580630002B0BDBFB8803F01F020749B7F913
S3156000416806305B09012000FA02F241F8232000BFFD
S315600041780C37BD465DF8047B704700BF00E100E080
S3156000418880B586B000AF03460A46FB8013467B714E
S31560004198B7F906301B0A7B61FB8803F01F033B6196
S315600041A87B69062B06D90E4B0E4A40F2BF510E4864
S315600041B8FEF796F97B699A000C4B1344FB60032261
S315600041C83B6902FA03F17A793B6902FA03F31A4604
S315600041D8F86805F008FA00BF1837BD4680BD00BF0D
S315600041E878452120C84D2120A04A212068C00F406B
S315600041F880B584B000AF78600023FB6006E00D4AA6
S315600042087B68934206D0FB680133FB60FB68002B32
S31560004218F5D000E000BFFB68002B05D0064B074AC7
S31560004228C2210748FEF75CF9FB6818461037BD4699
S3156000423880BD00BF00802D40B04A2120944D2120CA
S31560004248D44A212080B582B000AF78607B68002BA5
S3156000425805D10F4B0F4AD8210F48FEF741F9302296
S315600042680021786806F030FE7B6801229A727B68C6
S315600042780122DA727B6801221A737B6801221A7737
S315600042887B6840F2EE521A8100BF0837BD4680BD92
S31560004298E04A2120A84D2120D44A212080B588B043
S315600042A802AFF860B9607A603B60BB68002B06D1E4
S315600042B82D4B2E4A4FF488712D48FEF711F97B680D
S315600042C8002B06D12B4B294A40F211112848FEF7DC
S315600042D807F93B68002B06D1274B244A4FF48971AE
S315600042E82348FEF7FDF83B6A002B06D1234B1F4A8D
S315600042F840F213111E48FEF7F3F87B681B7F012B0B
S3156000430806D91F4B194A40F215111948FEF7E8F805
S3156000431800237B617B6A00933B687A68B968F868B2
S3156000432800F09CF83968786800F0EEFA3A687968BF
S31560004338F86800F085FB78617B69B3F57A6F05D11B
S31560004348B968F86800F020FC7B6908E07B6A00932E
S315600043583B6A3A687968F86800F05AF97B691846E2
S315600043681837BD4680BD00BF444A2120C04D212074
S31560004378D44A2120E04A2120F04A2120084B2120F6
S31560004388184B212080B584B000AF78607868FFF755
S315600043982FFFF8600C4AFB6852F82330BB607B68D5
S315600043A800229A607B685B6A23F002027B685A6225
S315600043B8BB689B6B002B03D0B968786800F0E4FB98
S315600043C800BF1037BD4680BD4096002080B584B0DA
S315600043D800AF786039607868FFF70AFFF8600649C9
S315600043E8FB683A6841F823207223184605F041F9BC
S315600043F800BF1037BD4680BD4896002080B584B0A2
S3156000440800AF786039607868FFF7F2FEF8600649B1
S31560004418FB683A6841F823207223184605F029F9A3
S3156000442800BF1037BD4680BD4496002080B584B075
S3156000443800AF786039607868FFF7DAFEF860064999
S31560004448FB683A6841F823207223184605F011F98B
S3156000445800BF1037BD4680BD4C96002080B588B039
S3156000446800AFF860B9607A603B60F868FFF7C0FE35
S3156000447878613B68BB617C220021B86806F024FD40
S315600044880023FB7773E0BB699B881A46BB691B8868
S3156000449802FB03F37A681289934206DC544B554A49
S315600044A84FF4F3715448FEF71BF8FA7FBB699968B5
S315600044B8BB6843F83210FB7FBA699188BA680833DB
S315600044C85B0013440A469A80FB7FBA691188BA680A
S315600044D8DB0013440A46DA80FB7FBA69117EBA6844
S315600044E813440A461A76FA7FBB69D968B8681346D0
S315600044F85B0013449B00034408331960FB7FBA6969
S31560004508D188BA6808335B0013440A46DA80FA7FB2
S31560004518BB695888B96813465B0013449B000B4413
S31560004528123302461A80FB7FBA69517EBA68134411
S315600045380A465A76FA7FBB69D969B86813465B003A
S3156000454813449B00034424331960FA7FBB69588877
S31560004558B96813465B0013449B000B442C33024630
S315600045681A80BB692033BB61FB7F0133FB777B68AD
S315600045781B7FFA7F9A4286D37B681A7FBB689A76D6
S315600045887B681A6ABB685A637B685A6ABB689A63AF
S315600045987B689A6ABB68DA617B68DA6ABB681A62A2
S315600045A816497B69BA6841F823207B685B6803F023
S315600045B84063002B03D01249F868FFF71FFF7B683A
S315600045C85B6803F04073002B03D00E49F868FFF769
S315600045D8FDFE7B685A680C4B1340002B03D00B49D1
S315600045E8F868FFF723FF00BF2037BD4680BD00BFD0
S315600045F85C4B2120DC4D2120D44A212040960020A6
S31560004608853100002132000000007C608D32000098
S3156000461880B58EB000AFF860B9607A603B60002301
S315600046287B630023BB62FB685B6A7B62BB681B6853
S315600046383B62BB681B893B630023FB613B6A03F4EF
S315600046480073002B02D040F2F2533B633B6A5B0770
S3156000465803F080423B6ADB039BB21A433B6A5B0109
S3156000466803F020031A433B6A9B0203F480531A4300
S315600046783B6A5B0003F010031A433B6A1B0903F0AD
S3156000468808031A433B6B19049E4B0B40134343F4D0
S3156000469880437B637B6B43F004037B63BB689B7AD5
S315600046A8012B03D17B6B43F480737B63BB68DB7A36
S315600046B8002B03D17B6B43F400737B63BB681B7B66
S315600046C8002B03D17B6B43F002037B63BB681B68DB
S315600046D803F48073002B0BD0BB689B7A012B07D041
S315600046E87B6B43F001037B637B6B23F002037B6385
S315600046F8FB687A6BC3F88420FB68D3F8C43023F46C
S315600047088273BB62BB681B7B002B01D0042200E06E
S3156000471800223B6A1B0103F480731343BA6A13438E
S31560004728BB62FB68BA6AC3F8C420BB689B7B1A463F
S31560004738FB68C3F8C021BB685B7B1A46FB68C3F895
S31560004748C4213B6A03F00103002B14D0BB681B8AA3
S315600047581A46FB68C3F8EC20BB689B7CBB61BB68E8
S31560004768DB7C1B0403F4F813BA691343BB61FB686B
S31560004778BA69C3F894213B6A03F02003002B10D072
S31560004788BB685B7D03F03F03FB61FB68FA69C3F8AE
S315600047984421BB681B7DFB61FB68FA69C3F89021FD
S315600047A808E0FB684FF48072C3F84421FB68002276
S315600047B8C3F89021BB689B7B03F01803002B04D0D9
S315600047C8FB684FF48072C3F84421BB685B7B03F0D7
S315600047D80603002B03D0FB680022C3F890217B6890
S315600047E8DB681A46FB68C3F884217B689B681A46AF
S315600047F8FB68C3F880217B689B881A46FB68C3F808
S3156000480888213968F86804F0F3FFF86804F07BFFDC
S31560004818034683F00103DBB2002B0ED0BB681B682E
S315600048289B0903F00103002B14BF01230023DBB2AD
S315600048381A46396CF86800F071FA0121F86805F0D3
S315600048481DF8002387F82F30BB689B69002B47D07B
S315600048584FF0A0637B61FB689A687B69DB431A400B
S31560004868FB689A60002387F82F3035E0BB689A6941
S3156000487897F82F30D35C1B0503F07F62BB68996994
S3156000488897F82F305B000B445B88134397F82F200B
S3156000489843F04041FB683C3243F82210BB689A6992
S315600048A897F82F3013441B791B0503F07F62BB68AA
S315600048B8996997F82F305B000B44DB88134397F8A8
S315600048C82F2043F04041FB68403243F8221097F8A6
S315600048D82F30013387F82F3097F82F30002BC5D04B
S315600048E8BB685B681946F86804F03CFF7B6A43F46A
S315600048F881737B62FB687A6A5A6200BF3837BD4645
S3156000490880BD00BF0000FF3F2DE9B04F8EB000AFFD
S31560004918F861B961BB697B6300233B63002387F851
S315600049282F307AE07B6BDB68002B6ED07B6BDB68A5
S31560004938BB627B6BDB887B627B6B5B887B847B6B18
S315600049485B69002B34D07B6B5B693B633B6B0022F6
S315600049583B617A617B8C00229A4693467B6A002289
S31560004968BB60FA60D7E90201034603FB0BF20B460C
S315600049780AFB03F313440246AAFB02452B441D4671
S31560004988D7E904120B4613EB0408134643EB0509F3
S3156000499818F1FF333B6049F1FF337B607B68012B7D
S315600049A806D3244B244A40F232312448FDF798FD59
S315600049B80023BB8525E07B6B5B69002B07D0BB8D2D
S315600049C87A6A03FB02F23B6B1A44BB6A5A60BA6A9C
S315600049D800231380BA6A4FF480635380BA8D7B8C48
S315600049E8013B9A4207D1BB6A5B889BB243F400538A
S315600049F89BB2BA6A5380BB6A0833BB62BB8D01330C
S31560004A08BB85BA8D7B8C9A42D5D37B6B20337B630F
S31560004A1897F82F30013387F82F30FB691B7F97F89B
S31560004A282F209A42FFF47EAF00BF00BF3837BD46DD
S31560004A38BDE8B08FA44B2120EC4D2120D44A21201B
S31560004A482DE9B04F8AB000AF78613961FA60FB68CA
S31560004A587B6200233B620023FB7780E07B6A9B884E
S31560004A68FF2B06D8444B454A40F266314448FDF769
S31560004A7837FD7B6A9B68002B6BD07B6A1B69002BB2
S31560004A8803D13B691B6A002B63D07B6A9B68BB6159
S31560004A980023BB8358E03B691B6A002B0AD17B6AFB
S31560004AA81B691946BB8B7A6A928802FB03F30B442F
S31560004AB83B620EE03B691B6A3A69D16AFA7F78699C
S31560004AC8984703463B623B6A002B02D14FF47A63F0
S31560004AD84CE03B6A0022984691467B6A9B889BB26B
S31560004AE800229A46934618EB0A0449EB0B05631EA7
S31560004AF83B6045F1FF337B607B68012B06D3214B16
S31560004B081E4A4FF463711E48FDF7EAFCBB693A6AB0
S31560004B185A60BB6900221A80BB694FF400425A800A
S31560004B28BA8B7B6A1B88013B9A4207D1BB695B8853
S31560004B389BB243F400539AB2BB695A80BB69083387
S31560004B48BB61BB8B0133BB837B6A1B88BA8B9A427A
S31560004B58A1D37B6A20337B62FB7F0133FB773B699A
S31560004B681B7FFA7F9A42FFF479AF002318462837ED
S31560004B78BD46BDE8B08F00BFF44B2120084E21200A
S31560004B88D44A2120284C212090B589B000AF78609E
S31560004B9839603B689B6B002B06D12E4B2E4A40F240
S31560004BA8BF312E48FDF79CFC0023FB8246E0FA8A5B
S31560004BB83B6853F83230002B06D1294B264A40F21F
S31560004BC8C9312648FDF78CFCFB8ADB003A6813443A
S31560004BD83B613B691B68BB610023FB83BB695B6800
S31560004BE8002B16D0BB695B68FB603B689C6BF968F9
S31560004BF83B681A6AFB8ADBB27868A047BB69002201
S31560004C085A60BB695B889BB203F400539AB2BB696E
S31560004C185A803B69DA88FB8B1146184600F0D6F84D
S31560004C280346FB833B691A68FB8BDB001344BB6155
S31560004C38FB8B002BD2D1FB8A0133FB823B689B7EC0
S31560004C481A46FB8A9342B2D300BF00BF2437BD46DB
S31560004C5890BD00BF6C4C2120244E2120D44A2120CF
S31560004C68884C212080B582B000AF78600B46FB7017
S31560004C78FB78002B06D00E4B0E4A40F2F3310E48F5
S31560004C88FDF72EFCBFF34F8F00BFFB78002B04D1D6
S31560004C987B684FF080721A6106E0084B054A40F25D
S31560004CA807410548FDF71CFC00BF0837BD4680BDB7
S31560004CB8B44C2120AC4E2120D44A212070492120B1
S31560004CC880B584B000AF78600B46FB70FB78002B2C
S31560004CD806D00F4B0F4A4FF483610F48FDF700FC6F
S31560004CE80023FB60BFF34F8F00BFFB78002B03D117
S31560004CF87B681433FB6003E07B681433FB6000BF9A
S31560004D08FB6800221A6000BF1037BD4680BD00BF31
S31560004D18B44C21203C4E2120D44A212080B588B04D
S31560004D2800AFF860B9601346FB71BB68002B03D00F
S31560004D38BB681F4A934206D91E4B1F4A4FF49761B8
S31560004D481E48FDF7CDFB0023FB610023BB610023F2
S31560004D587B61BA681A4B13441A4AA2FB03235B0D9C
S31560004D68013BBB61184ABB68B2FBF3F303F1090266
S31560004D781549BB68B1FBF3F3B2FBF3F3013BFB6187
S31560004D88BB695B0003F07E02FB691B0203F4E06308
S31560004D981343FA79002A01D0802200E000221343E7
S31560004DA87B61FB687A695A6400BF2037BD4680BD5F
S31560004DB800D01213F04C2120504E2120D44A2120D5
S31560004DC83F4B4C006BCA5F6B00CA9A3B80B582B09A
S31560004DD800AF03460A46FB801346BB80FA88BB8849
S31560004DE89A4206D30A4B0B4A40F27A510A48FDF7B3
S31560004DF877FBFB880133FB80FA88BB889A4201D32C
S31560004E080023FB80FB8818460837BD4680BD00BF77
S31560004E18244D21205C4E2120D44A212080B58AB0B9
S31560004E2800AFF860B9601346FB71FB68002B06D1CA
S31560004E38474B484A40F239614748FDF751FBBB6822
S31560004E48002B06D1454B434A40F23A614248FDF78A
S31560004E5847FBFB79002B06D0414B3E4A40F23B614B
S31560004E683D48FDF73DFBBB6800221A604FF40843D6
S31560004E787B83FB79DB00FA6813447B617B691A687C
S31560004E887B699B88DB0013447B627B699B887B8498
S31560004E98002387F821300023FB617B6A5B889BB21D
S31560004EA81BB2002B06DA012387F8213040F6A3737C
S31560004EB8FB613DE07B6A1B889BB2002B06D1012310
S31560004EC887F8213040F6A173FB6131E07B6A5B8825
S31560004ED89AB27B8B13409BB2B3F5006F14D1012352
S31560004EE887F821307B6A5B889BB203F03703002B17
S31560004EF803D040F6A173FB611AE07B6A1B889BB2FC
S31560004F081A46BB681A6013E07B69DA887B8C11469F
S31560004F181846FFF75BFF03467B847B691A687B8CC0
S31560004F28DB0013447B627B699B887A8C9A42C1D189
S31560004F3897F8213083F00103DBB2002B02D040F6EC
S31560004F48A373FB61FB6918462837BD4680BD00BF61
S31560004F58444A2120704E2120D44A2120744D2120B4
S31560004F68484D212080B58EB000AFF860B9607A6090
S31560004F783B60BB68002B06D15E4B5F4A40F2AD6171
S31560004F885E48FDF7ADFA97F84030002B06D05C4BCB
S31560004F98594A40F2AF615948FDF7A2FA00237B628D
S31560004FA800237B63002387F8333097F84030DB00B3
S31560004FB8BA6813443B623B6A1A683B6A9B88DB00A3
S31560004FC81344FB623B6A9B88FB830023BB627B6856
S31560004FD8002B40F08180FB6A5B887B8297F84030C3
S31560004FE81A46B968F86800F08DF87B8A03F400639E
S31560004FF8002B79D13B6A1A683B6A9B88DB001344AD
S31560005008FB623B6A9B88FA8B9A42E4D16DE0FB6A45
S315600050185B68BB617B687A6B13447B61FB6A5B8800
S315600050289BB203F40063002B26D0012387F8333044
S31560005038FB6A1B889BB21A463B68934214D1FB6A8B
S315600050481B889BB21A467B6BD31A7B627B69B969EC
S315600050587A6A184605F018FF97F840301A46B96814
S31560005068F86800F04FF840E097F840301A46B9689B
S31560005078F86800F047F828E0002387F833307A6B41
S315600050883B689A4203D340F6A273BB622DE0786907
S31560005098B96997F84030BA6808335B0013449B884F
S315600050A81A4605F0F1FE97F84030BA6808335B0097
S315600050B813449B881A467B6B13447B6397F840308E
S315600050C81A46B968F86800F01DF83B6A1A683B6AC0
S315600050D89B88DB001344FB6297F8333083F0010347
S315600050E8DBB2002B93D100E000BFBB6A18463837A5
S315600050F8BD4680BD444A2120844E2120D44A2120C1
S31560005108B44C212080B586B000AFF860B96013460C
S31560005118FB71BB68002B06D1204B214A40F21971FE
S315600051282048FDF7DDF9FB79002B06D01E4B1C4A9B
S3156000513840F21B711B48FDF7D3F9FB79DB00BA68AF
S3156000514813447B617B691A687B699B88DB0013441F
S315600051583B613B695B889BB203F400539AB23B6937
S315600051685A803B695B889AB2104B13439AB23B6983
S315600051785A807B699A887B69DB8819461046FFF7EF
S3156000518825FE03461A467B699A80FB791946F868B4
S31560005198FFF768FD00BF1837BD4680BD444A212029
S315600051A8944E2120D44A2120B44C21200080FFFF50
S315600051B880B590B000AFF860B9607A603B60BB6854
S315600051C8002B06D1A24BA34A4FF4E961A248FDF72A
S315600051D887F97B68002B06D1A04B9E4A40F249713D
S315600051E89D48FDF77DF997F84830002B06D09C4B13
S315600051F8984A40F24B719848FDF772F997F848203B
S3156000520813465B0013449B000833BA681344FB6279
S3156000521897F8482013465B0013449B002033BA680E
S3156000522813440433BB6200237B620023BB63002301
S315600052383B6200237B63002387F83330FB68D3F82F
S3156000524884301B0CC3F30D03043B3A689A4203D9B6
S3156000525840F6A5737B636FE1FB6A1A68FB6A9B88F5
S31560005268DB001344FB63FB6B5B889BB21BB2002BB2
S3156000527803DA40F6A6737B635EE197F84830BA684E
S31560005288134493F83030002B0CD0B86A04F0DFFA78
S31560005298034683F00103DBB2002B03D040F6A67306
S315600052A87B6349E197F84830BA6808335B00134472
S315600052B8DB881A463B6893425BD8FB6B5B68FB618D
S315600052C8FB693A687968184605F0DEFD3B689AB26C
S315600052D8FB6B1A80FB6B5B889AB2624B13439AB27C
S315600052E8FB6B5A80FB6A9A88FB6A5B89194610468B
S315600052F8FFF76CFD03461A46FB6A9A8097F84830B2
S31560005308BA68134493F83030002B2BD0BB6A1A68FE
S31560005318BB6A9B889B0013447B627B6A3A6D1A6002
S31560005328BB6A9A88BB6A1B8919461046FFF74EFD09
S3156000533803461A46BB6A9A80BB6A9A88BB6ADB8848
S315600053489A4202D1BB6A01229A7204F0ABF978617B
S31560005358FB6A1B899BB201339AB2FB6A1A81786928
S3156000536804F0B1F997F848301946F868FFF7A8FCD1
S31560005378E2E03A68BB6BD31A3B62FB6B5B68FB6126
S315600053887B68BA6B1344BB61FB6A9A88FB6A5B8964
S3156000539819461046FFF71AFD03461A46FB6A9A80B5
S315600053A897F84830BA6808335B001344DB881A46B6
S315600053B83B6A934258D9F869B96997F84830BA6828
S315600053C808335B001344DB881A4605F05DFD97F8E1
S315600053D84830BA6808335B001344DA88FB6B1A8076
S315600053E897F84830BA6808335B001344DB881A4676
S315600053F8BB6B1344BB63FB6B5B889BB23B613B69CE
S3156000540823F400633B613B6943F400433B613B69BA
S315600054189AB2FB6B5A8097F84830BA68134493F887
S315600054283030002B0CD004F03DF97861FB6A1B899B
S315600054389BB201339AB2FB6A1A81786904F043F920
S3156000544897F848301946F868FFF73AFC5CE000BF01
S31560005458444A2120C04E2120D44A2120844D21204F
S31560005468B44C21200088FFFFFB69B9693A6A18467F
S3156000547805F00AFD3B6A9AB2FB6B1A80FB6B5B8888
S315600054889AB2304B13439AB2FB6B5A8097F84830FE
S31560005498BA68134493F83030002B2BD0BB6A1A686D
S315600054A8BB6A9B889B0013447B627B6A3A6D1A6071
S315600054B8BB6A9A88BB6A1B8919461046FFF786FC41
S315600054C803461A46BB6A9A80BB6A9A88BB6ADB88B7
S315600054D89A4202D1BB6A01229A7204F0E3F87861B3
S315600054E8FB6A1B899BB201339AB2FB6A1A81786997
S315600054F804F0E9F897F848301946F868FFF7E0FBD2
S31560005508012387F833300DE0FB6A1A68FB6A9B88CB
S31560005518DB001344FB63FB6B5B889BB21BB2002BFF
S31560005528BFF627AF97F8333083F00103DBB2002B61
S3156000553802D040F6A6737B637B6B18464037BD4640
S3156000554880BD00BF0088FFFF90B58DB002AFF860E0
S31560005558B9601346FB71FB79002B06D03E4B3F4A78
S3156000556840F646013E48FCF7BBFFFA7913465B00F6
S3156000557813449B000833BA6813443B623B6A1A6853
S315600055883B6ADB88DB0013447B62FA7913465B006F
S3156000559813449B002033BA6813440433FB61002329
S315600055A8BB614AE07B6A5B889BB203F40063002BAD
S315600055B823D0FB691A68FB69DB889B001344BB61CF
S315600055C8FB69DA88FB691B8919461046FFF7FEFBFB
S315600055D803461A46FB69DA80FB6900229A72BB6841
S315600055E8DB69002B09D0BB68DC69BB681B6A009362
S315600055F8BB690122B968F868A04704F053F8786176
S315600056083B6A1B899BB2013B9AB23B6A1A817869ED
S3156000561804F059F83B6ADA883B6A5B891946104692
S31560005628FFF7D4FB03461A463B6ADA803B6A1A6878
S315600056383B6ADB88DB0013447B627B6A5B889BB2D0
S315600056481BB2002B04DB3B6A1B899BB2002BA9D1DA
S3156000565800BF2C37BD4690BDB44C2120D04E2120CA
S31560005668D44A212090B589B002AF786039603B682A
S31560005678002B06D11F4B204A40F612411F48FCF703
S315600056882FFF4FF040637B6100233B6127E07B6817
S315600056985B68FB607B687A695A603A683B69134461
S315600056A830331B78002B0CD0FB6803F00063002BAB
S315600056B807D03B69DBB21A4639687868FFF744FF5A
S315600056C80DE03B68DB69002B09D03B68DC693B6809
S315600056D81B6A00930023012239687868A0477B68B3
S315600056E85A687B691340002BD1D100BF00BF1C37B5
S315600056F8BD4690BD444A2120EC4E2120D44A212043
S3156000570890B587B002AF786039603B68002B06D1E8
S31560005718134B144A40F64E411348FCF7E1FE4FF02E
S315600057284073FB6010E07B68FA685A603B68DB6927
S31560005738002B09D03B68DC693B681B6A0093002331
S31560005748002239687868A0477B685A68FB68134006
S31560005758002BE8D100BF00BF1437BD4690BD00BF1F
S31560005768444A2120044F2120D44A212090B587B08D
S3156000577802AF786039603B68002B06D11F4B204A20
S3156000578840F67A411F48FCF7ABFE1F4BFB607B680F
S315600057985B6803F40033002B16D07B684FF4003245
S315600057A85A600021786803F0C1FF3B68DB69002B0B
S315600057B820D03B68DC693B681B6A009300230322A0
S315600057C839687868A04715E07B685B68FA681340B3
S315600057D8FB607B68FA685A603B68DB69002B09D016
S315600057E83B68DC693B681B6A0093002302223968C0
S315600057F87868A04700BF1437BD4690BD444A21204B
S315600058081C4F2120D44A212000007C6080B584B0DA
S3156000581800AF78607B685B68FB607868FEF7E8FCD9
S31560005828B8607B689B68FA681340FB60FB6803F0A6
S315600058384063002B10D02B4ABB6852F82330002BEC
S315600058480AD0284ABB6852F823302749BA6851F803
S315600058582220114678689847FB6803F04073002B4E
S3156000586810D0224ABB6852F82330002B0AD01F4A50
S31560005878BB6852F823301C49BA6851F82220114691
S3156000588878689847FB6803F4C033002B10D0184A31
S31560005898BB6852F82330002B0AD0154ABB6852F809
S315600058A823301149BA6851F822201146786898471A
S315600058B8FA68104B1340002B10D00F4ABB6852F899
S315600058C82330002B0AD00C4ABB6852F823300649AD
S315600058D8BA6851F8222011467868984700BF103791
S315600058E8BD4680BD4496002040960020489600201C
S315600058F85096002000007C604C96002080B584B0ED
S3156000590800AF78607868FEF773FCF8600A4AFB684F
S3156000591852F82330002B0AD0074AFB6852F8233026
S315600059280649FA6851F8222011467868984700BFF8
S315600059381037BD4680BD00BF5496002040960020B3
S3156000594880B500AF0348FFF761FFBFF34F8F00BF15
S3156000595800BF80BD00802D4080B500AF0348FFF7CB
S31560005968CDFFBFF34F8F00BF00BF80BD00802D40C5
S3156000597880B586B000AF03460A46FB8013467B7146
S31560005988B7F906301B0A7B61FB8803F01F033B618E
S315600059987B69062B06D90E4B0E4A40F2BF510E485C
S315600059A8FCF79EFD7B699A000C4B1344FB6003224F
S315600059B83B6902FA03F17A793B6902FA03F31A46FC
S315600059C8F86803F077FF00BF1837BD4680BD00BF93
S315600059D878452120DC4F2120A04A212068C00F404D
S315600059E880B586B000AFF8600B467A60FB72FB68DC
S315600059F8002B05D10E4B0F4A78210F48FCF770FD36
S31560005A08FB687B6100233B6108E07B69FA7A1A7060
S31560005A187B6901337B613B6901333B613A697B682A
S31560005A289A42F2D300BF00BF1837BD4680BD00BF9B
S31560005A38344F2120844F2120404F212080B584B0E7
S31560005A4800AF78600023FB6006E00D4A7B689342EE
S31560005A5806D0FB680133FB60FB68002BF5D000E0DD
S31560005A6800BFFB68002B05D0064B074A8F21074805
S31560005A78FCF736FDFB6818461037BD4680BD00BF8B
S31560005A8800802A40504F2120944F2120404F2120EA
S31560005A9880B588B000AF786039600123FB777B6892
S31560005AA81B681B0903F003033B613B69022B03D99F
S31560005AB83B69032B03D00CE00123FB770FE03B68BF
S31560005AC81B79002B02D00123FB7708E00023FB77C4
S31560005AD805E01D4B1D4AB0211D48FCF701FDFB7F03
S31560005AE8002B03D04FF48073BB6128E03B681B68CA
S31560005AF8184A934202D97923BB6120E03B689B7CB4
S31560005B081A464FF47A7302FB03F3FB60FB68124A8A
S31560005B18A2FB0323DB087B617A6913469B00134467
S31560005B281A01D31AFA689A4202D97B6901337B61F2
S31560005B387B695B0203F4FC4343F48073BB61BB6916
S31560005B4818462037BD4680BD70492120A84F2120C0
S31560005B58404F2120FFE0F505B5814E1B80B584B026
S31560005B6800AF786039600023FB603A6840F60A0344
S31560005B7813403B603B68002B24D03B6803F400630A
S31560005B88002B03D041F65933FB6017E03B6803F0FE
S31560005B980803002B03D041F65A33FB600EE03B68DE
S31560005BA803F00203002B03D041F65B33FB6005E08C
S31560005BB8074B084AEC210848FCF792FC3968786874
S31560005BC803F0C7FEFB6818461037BD4680BD00BFA8
S31560005BD870492120C04F2120404F212080B584B0D4
S31560005BE800AF786039600023BB600023FB73786878
S31560005BF8FFF724FF40F20A63184603F083FE7B68CA
S31560005C081B6823F002027B681A60786803F089FED5
S31560005C183B681B781B0103F030023B68DB781B038B
S31560005C2803F480531A433B689B7A1B0403F47F038F
S31560005C381A433B681B7C1B061A433B685B789B03CD
S31560005C4803F480431A433B681B79DB0203F4006361
S31560005C581A433B689B785B0303F400531A433B681B
S31560005C689B7BDB01DBB21A433B68DB7B9B0103F062
S31560005C784003134343F00203BB607B68BA681A604B
S31560005C883B681B891B043A68528A1343BB607B686E
S31560005C98BA685A607B689B68BB60BA686A4B13408F
S31560005CA8BB603B681B7D1A063B685B79DB0403F4C3
S31560005CB800231A433B689B79DB039BB21A433B6814
S31560005CC893F82E30DB0203F400631343BA68134378
S31560005CD8BB607B68BA689A607B68DB68BB60BB68D8
S31560005CE823F07803BB603B6893F82F309B0103F081
S31560005CF840023B6893F830305B0103F020031A4397
S31560005D083B6893F831301B0103F010031A433B6874
S31560005D1893F83230DB0003F008031343BA68134381
S31560005D28BB607B68BA68DA600023FB7346E0FA7B7F
S31560005D387B68083253F82230BB60BA68434B13401D
S31560005D48BB60FA7B396813465B0013445B000B44FF
S31560005D581A331B78D907FA7B386813465B001344F5
S31560005D685B00034416331B781B0603F04073194324
S31560005D78FA7B386813465B0013445B0003441733A9
S31560005D881B781B0403F470231943FA7B386813469F
S31560005D985B0013445B00034418331B88DB089BB223
S31560005DA8DBB20B43BA681343BB60FA7B7B68083285
S31560005DB8B96843F82210FB7B0133FB73FB7B032B2B
S31560005DC8B5D97B68D3F8B83023F03C027B68C3F852
S31560005DD8B8207B68D3F8B8203B681B7BDB08DBB24E
S31560005DE8013B9B0003F03C031A437B68C3F8B82069
S31560005DF87B68D3F8BC3023F03C027B68C3F8BC20D0
S31560005E087B68D3F8BC203B68DB7ADB08DBB2013BF6
S31560005E189B0003F03C031A437B68C3F8BC2000234D
S31560005E28FB7308E0FA7B7B681832002143F822107E
S31560005E38FB7B0133FB73FB7B032BF3D900BF00BFEE
S31560005E481037BD4680BD00BFFF77F70000FFF07CC6
S31560005E5880B586B000AFF860B9601346FB71002361
S31560005E687B61FB795B08FB7400BFF86803F07FFD14
S31560005E78034683F00103DBB2002BF6D1FA79BB68DF
S31560005E889968FB68183243F82210BB68DB891A04E4
S31560005E98BB681B7BDB039BB21A43BB681B7C5B013D
S31560005EA803F478731A43BB685B7C03F01F031A43D9
S31560005EB8BB68DB7CDB0203F4F04342EA0301BB68A0
S31560005EC81B7D9B0203F48063FA791943FB681C32D5
S31560005ED843F82210FA79FB68203253F822307B6146
S31560005EE87A694E4B13407B61BB685B7E1B0703F088
S31560005EF8E042BB685B8B1904494B0B4013437A69D4
S31560005F0813437B61BB689B7D002B0DD0BB685B7DB3
S31560005F181B0203F47062BB689B7D013B5B039BB20B
S31560005F2813437A6913437B61BB681B7E002B0CD0D5
S31560005F38BB68DB7D03F00F02BB681B7E013B5B0120
S31560005F48DBB213437A6913437B61FA79FB682032C3
S31560005F58796943F82210FB791A46B968F86803F03C
S31560005F68C3FDFB681B6843F00202FB681A60BB68E6
S31560005F781B7F002B08D0FB68D3F8943023F001020E
S31560005F88FB68C3F8942007E0FB68D3F8943043F0C5
S31560005F980102FB68C3F89420FB7C002B14D1FB68D4
S31560005FA8D3F8943023F00402FB68C3F89420FB68A6
S31560005FB8D3F89420BB681B7F9B0003F004031A4345
S31560005FC8FB68C3F8942013E0FB68D3F8943023F099
S31560005FD80802FB68C3F89420FB68D3F89420BB6872
S31560005FE81B7FDB0003F008031A43FB68C3F89420A1
S31560005FF8FB681B6823F00202FB681A6000BFF8683A
S3156000600803F0B5FC034683F00103DBB2002BF6D13F
S3156000601800BF00BF1837BD4680BD00BF10100080A6
S315600060280000FF0F80B586B000AFF860B9607A608F
S315600060383B60BB683F2B06D91D4B1E4A40F24D217B
S315600060481D48FCF74DFA00237B6100BFF86803F032
S315600060588EFC034683F00103DBB2002BF6D1FB68A6
S31560006068164A9A61FB680222DA61BB6880339B0034
S31560006078FA6813443B6100237B610AE07A68131D62
S315600060887B603B69191D396112681A607B69013347
S315600060987B617A693B689A42F0D3FB68074A9A61E2
S315600060A8FB680122DA6100BF1837BD4680BD00BFB4
S315600060B8784F2120F04F2120404F2120F05AF05A86
S315600060C880B500AF054B1B68054A1268114605483E
S315600060D89847BFF34F8F00BF00BF80BD5C96002016
S315600060E85896002000802A4080B586B000AF0346E7
S315600060F80A46FB8013467B71B7F906301B0A7B613B
S31560006108FB8803F01F033B617B69062B06D90E4BA0
S315600061180E4A40F2BF510E48FCF7E2F97B699A00D5
S315600061280C4B1344FB6003223B6902FA03F17A794C
S315600061383B6902FA03F31A46F86803F0FBFE00BFF0
S315600061481837BD4680BD00BF78452120785021208C
S31560006158A04A212068C00F4080B584B000AF78603F
S315600061680023FB6009E00E4AFB6852F823307A6820
S315600061789A4206D0FB680133FB60FB68052BF2D9AF
S3156000618800E000BFFB68052B05D9064B064A3C2193
S315600061980648FCF7A5F9FB6818461037BD4680BD6A
S315600061A80450212028502120645021204C50212061
S315600061B880B586B000AFF860B9607A60F868FFF7B6
S315600061C8CBFF78617B69052B0DD8214A7B6932F94B
S315600061D81330B3F1FF3F06D01D4A7B6932F913309D
S315600061E8184603F0CFFEFB685A690121BB6801FABD
S315600061F803F3DB431A40FB685A617B681B78002B04
S315600062080AD1FB685A680121BB6801FA03F3DB43CC
S315600062181A40FB685A600FE07B685B781A46B96873
S31560006228F86800F017F8FB685A680121BB6801FA3C
S3156000623803F31A43FB685A607B689B781A46B96809
S31560006248F86803F0AEFE00BF1837BD4680BD00BFD4
S315600062581C50212080B584B000AFF860B960134641
S31560006268FB71BB681F2B05D90C4B0D4A75210D4870
S31560006278FCF736F9FB79002B06D10122BB689A40F8
S31560006288FB68C3F8882005E00122BB689A40FB6872
S31560006298C3F8842000BF1037BD4680BD5850212002
S315600062A88C5021204C50212080B487B000AFF86014
S315600062B8B9601346FB71BB683B61FB68DA6901210B
S315600062C8BB6801FA03F3DB431A40FB68DA61BB6813
S315600062D80F2B03D8FB680C337B6105E0FB68103332
S315600062E87B613B69103B3B61FB79013B042B52D8D0
S315600062F801A252F823F000BF2D3E0000453E000083
S31560006308693E00008D3E0000A33E00007B691A6866
S315600063183B695B00032101FA03F3DB431A407B699F
S315600063281A6039E07B691A683B695B00032101FAE8
S3156000633803F3DB431A403B695B00012101FA03F36F
S315600063481A437B691A6027E07B691A683B695B00B8
S31560006358032101FA03F3DB431A403B695B00022120
S3156000636801FA03F31A437B691A6015E07B691A68B8
S315600063783B695B00032101FA03F31A437B691A60E0
S315600063880AE0FB68DA690121BB6801FA03F31A437C
S31560006398FB68DA6100E000BF00BF1C37BD465DF8E8
S315600063A8047B704780B586B000AF03460A46FB801B
S315600063B813467B71B7F906301B0A7B61FB8803F0CD
S315600063C81F033B617B69062B06D90E4B0E4A40F2CA
S315600063D8BF510E48FCF784F87B699A000C4B13444E
S315600063E8FB6003223B6902FA03F17A793B6902FA98
S315600063F803F31A46F86803F0E5FD00BF1837BD4693
S3156000640880BD00BF78452120E8512120A04A21207F
S3156000641868C00F4080B584B000AF78600023FB6029
S315600064280BE00E4AFB6852F823307A689A4201D12B
S31560006438FB680FE0FB680133FB60FB68082BF0D94B
S31560006448FB68082B05D9064B064AD7210648FCF790
S3156000645847F8FB6818461037BD4680BD9C5021201A
S31560006468D4502120C8512120FC50212080B58CB001
S3156000647800AFF860B9607A60BB68002B06D1784BCC
S31560006488784A40F269117848FCF72AF8BB681B68B5
S31560006498002B06D1754B734A4FF4B5717248FCF7F9
S315600064A81FF8BB681B7A032B06D9714B6D4A4FF4EC
S315600064B8B6716D48FCF714F8BB685B7A032B06D98E
S315600064C86C4B684A40F26D116748FCF709F800237F
S315600064D8FB62BB681B68FB61002387F823300023D7
S315600064E8FB84042387F8223042E07B685A00BB6845
S315600064F81B6897F8221001FB03F3B2FBF3F3013331
S315600065085B08BB84BB8C002B02D10123BB8406E0ED
S31560006518BB8CB3F5005F02D341F6FF73BB8497F873
S315600065282230BA8C02FB03F37A68B2FBF3F37B6121
S31560006538BB681B687A699A4204D9BB681B687A6922
S31560006548D31A03E0BB681A687B69D31A3B613A6958
S31560006558FB699A4207D83B69FB6197F8223087F84E
S315600065682330BB8CFB8497F82230013387F82230BE
S3156000657897F82230202BB8D9BB681B683E4AA2FB25
S3156000658803235A0913465B001344FA699A4203D9EE
S3156000659840F22153FB62FBE0F868FFF73BFFB86106
S315600065A8364ABB6932F91330184603F033FDF8688A
S315600065B803F06FFDFB681B69BB6297F82330032BFA
S315600065C807D997F82330072B03D8BB6A43F40033FF
S315600065D8BB62BB6A23F0F853BB6297F82330013B72
S315600065E81B0603F0F853BA6A1343BB62BA6A244BB4
S315600065F81340BB62FB8CC3F30C02BB6A1A43FB688D
S315600066081A61FB681B6923F00052FB681A61FB6814
S315600066189A691C4B1340BB62BB681B791A46BB68F8
S31560006628DB7B1B0203F4E0631A43BB689B7B9B001E
S3156000663803F004031343BA6A1343BB62BB685B790E
S31560006648012B21D1BB681B79002B04D0BB6A23F4CC
S315600066580063BB6220E0BB6A43F40063BB621BE075
S315600066680C512120DC512120FC5021201C51212075
S3156000667838512120805121201F85EB51C05021209F
S3156000668800E0FFFFE8F8FFFFBB681B79002B03D02B
S31560006698BB6A43F01003BB62FB68BA6A9A61FB681F
S315600066A81B6923F40053BB62BB68DB795B0303F4A5
S315600066B80052BB6A1A43FB681A61BB685B7A1B04A3
S315600066C8BA68127A1A43FB68DA62FB689B6A43F017
S315600066D88802FB689A62FB689B6A43F44042FB68DF
S315600066E89A622E4BBB62BB6A43F00043BB62BB6ACD
S315600066F843F44043BB62FB685A6ABB685B7B1B0119
S3156000670803F01001BB681B7B5B0103F020030B439E
S315600067181A43FB685A62BB689B7A002B05D0FB68F4
S315600067285B6A43F00802FB685A62BB68DB7A002B37
S3156000673805D0FB685B6A43F00102FB685A62BB6876
S315600067489B79002B04D0BB6A43F00053BB6203E01D
S31560006758BB6A23F00053BB62FB685A69BB6A1A437B
S31560006768FB685A61FB689B69BB62BB681B7C002B34
S3156000677803D0BB6A43F40023BB62BB685B7C002B17
S3156000678803D0BB6A43F48023BB62FB68BA6A9A612A
S31560006798FB6A18463037BD4680BD00BF00001F4003
S315600067A880B584B000AF786000BF7B68DB6A03F4AD
S315600067B8E063002BF9D100BF7B685B6903F4800353
S315600067C8002BF9D0104BFB60FB6843F00043FB607D
S315600067D8FB6843F44043FB607B685A69FB681A436D
S315600067E87B685A617B6800229A617868FFF712FEB7
S315600067F8B860064ABB6832F91330184603F019FCCC
S3156000680800BF1037BD4680BD00001F40C050212024
S3156000681880B582B000AF78607B68002B06D11F4BCD
S315600068281F4A40F28D211F48FBF75AFE14220021A9
S31560006838786804F049FB7B684FF4E1321A607B683C
S3156000684800221A717B6800225A717B6800229A714D
S315600068587B680022DA717B6800221A727B680022E4
S315600068685A727B6800229A727B680022DA727B68A9
S3156000687800225A737B6800221A737B6800229A7317
S315600068887B680022DA737B6800221A747B680022B0
S315600068985A7400BF0837BD4680BD00BF0C51212021
S315600068A8FC512120FC50212080B584B000AF78606F
S315600068B839603A68254B13403B600023FB603B68B0
S315600068C81B0203F40043FA681343FB603B6823F03A
S315600068D880033B603B681B0203F48043FA681343FA
S315600068E8FB603B6823F040033B6003F0B1FBB86094
S315600068F87B681A69FB681A437B681A61B86803F093
S31560006908B8FB03F0A5FBB8607B689B6A23F440324A
S315600069183B6803F440731A437B689A62B86803F06D
S31560006928A8FB3B6823F440733B6003F091FBB860B7
S315600069387B689A693B681A437B689A61B86803F012
S3156000694898FB00BF1037BD4680BD00BFC0C3F00FBF
S3156000695880B584B000AF786039603A68264B1340DA
S315600069683B600023FB603B681B0203F40043FA6844
S315600069781343FB603B6823F080033B603B681B0264
S3156000698803F48043FA681343FB603B6823F04003D3
S315600069983B6003F05DFBB8607B681A69FB68DB43A4
S315600069A81A407B681A61B86803F063FB03F050FB12
S315600069B8B8607B689A6A3B6803F44073DB431340AC
S315600069C823F440327B689A62B86803F052FB3B68EE
S315600069D823F440733B6003F03BFBB8607B689A69BD
S315600069E83B68DB431A407B689A61B86803F041FBF1
S315600069F800BF1037BD4680BDC0C3F00F80B485B0F8
S31560006A0800AF78607B689A69134B1340FB60FB683C
S31560006A1823F040027B681B691B0A03F0400313439B
S31560006A28FB60FB6823F080027B681B691B0A03F026
S31560006A3880031343FB60FB6823F440727B689B6AA0
S31560006A4803F440731343FB60FB6818461437BD466E
S31560006A585DF8047B704700BFC0C3F00F80B485B093
S31560006A6800AF78607B685B69FB607B689B6A1B0C20
S31560006A7803F0C303FA681343FB60FA68044B1340D8
S31560006A88FB60FB6818461437BD465DF8047B7047A3
S31560006A98C3C0FFC180B584B000AF786039603A681A
S31560006AA81A4B13403B603B6803F00303002B10D07E
S31560006AB87B689B6ABB60BB6823F47033BB603B68CA
S31560006AC81B0403F44033BA681343BB607B68BA6837
S31560006AD89A627B685B6903F078533A681343BB60D4
S31560006AE87B68BA685A617868FFF7B8FF02463B6800
S31560006AF81340002B03D040F21A53FB6001E00023D9
S31560006B08FB60FB6818461037BD4680BD03C01FC0D2
S31560006B1880B582B000AF786039603B68002B06D1DB
S31560006B28104B114A40F2A1111048FBF7D9FC3B689B
S31560006B385B69002B06D10E4B0B4A4FF4D1710B489B
S31560006B48FBF7CEFC0021786803F0B9FA3B685B690D
S31560006B58184602F0FDFC3B6802229A7600BF0837A9
S31560006B68BD4680BD38522120D4522120245221208E
S31560006B78A4522120B0B584B000AFF860B9607A60DD
S31560006B88BB68002B06D11E4B1E4A40F2BB111E483D
S31560006B98FBF7A6FCBB685B69002B06D11B4B194A41
S31560006BA84FF4DE711848FBF79BFC7B68002B06D117
S31560006BB8174B144A40F2BD111348FBF791FCBB68AA
S31560006BC89B7EDBB2022B01D1062315E0BB689C686D
S31560006BD8BB681B7E1D46BB685B699A68BB685B6958
S31560006BE81B7C19461046FCF7B1FE034605FB03F30A
S31560006BF8E21A7B681A60002318461037BD46B0BD96
S31560006C0838522120F452212024522120A4522120D6
S31560006C18C4522120B0B584B000AFF860B9607A601C
S31560006C28BB68002B06D11E4B1E4A4FF4ED711E48F9
S31560006C38FBF756FCBB681B69002B06D11B4B194A30
S31560006C4840F2DB111848FBF74BFC7B68002B06D13A
S31560006C58174B144A4FF4EE711348FBF741FCBB68B7
S31560006C685B7EDBB2002B01D1062315E0BB68DC68CE
S31560006C78BB681B7E1D46BB681B699A68BB681B6937
S31560006C881B7C19461046FCF761FE034605FB03F3B9
S31560006C98E21A7B681A60002318461037BD46B0BDF5
S31560006CA8385221201853212024522120485221206D
S31560006CB8C452212080B483B000AF0346FB80B7F985
S31560006CC80630002B0BDBFB8803F01F020749B7F978
S31560006CD806305B09012000FA02F241F8232000BF62
S31560006CE80C37BD465DF8047B704700BF00E100E0E5
S31560006CF880B483B000AF03463960FB80B7F90630CD
S31560006D08002B0ADB3B68DAB20C49B7F90630120188
S31560006D18D2B20B4483F800230AE03B68DAB208492A
S31560006D28FB8803F00F03043B1201D2B20B441A76B8
S31560006D3800BF0C37BD465DF8047B704700E100E094
S31560006D4800ED00E080B485B000AF786042F6AF73BE
S31560006D58FB817B68002B31D07B68002B49DB7B6825
S31560006D6840F22152934244DC7B6840F214529342CB
S31560006D783FDB7B68A3F214530D2B3AD801A252F875
S31560006D8823F000BFE3480000EB480000F34800002A
S31560006D98FB4800001349000013490000134900002E
S31560006DA81349000013490000134900000B4900000D
S31560006DB80B4900000B490000034900000023FB81D2
S31560006DC818E042F6A973FB8114E042F6AA73FB81C8
S31560006DD810E042F6AB73FB810CE042F6AC73FB81C4
S31560006DE808E042F6AD73FB8104E042F6AE73FB81C0
S31560006DF800E000BFFB8918461437BD465DF8047B82
S31560006E08704700BF80B586B000AF0346FB71FB795B
S31560006E18224A52F823307B617B69002B06D1204BCE
S31560006E28204A4FF4A1712048FBF75AFB7B699B689F
S31560006E38002B2ED07B69DB6D002B2AD07B691B79F2
