S02B0000563A5C55736572735C796F6E676A69655C446F63756D656E74735C4D43555870726573736F49444570
S315600400004643464200040156000000000003030014
S31560040010010100000104000000020000000000006D
S315600400200000000000000000000000000000000066
S315600400300000000000000000000000000000000056
S31560040040000000000104070000000000000000003A
S315600400500000000200000000000000000000000034
S315600400600000000000000000000000000000000026
S315600400700000000000000000000000000000000016
S31560040080EC04200A0632042600000000000000008A
S3156004009005040424000000000000000000000000C5
S315600400A000000000000000000000000000000000E6
S315600400B006040000000000000000000000000000CC
S315600400C000000000000000000000000000000000C6
S315600400D02004040800000000000000000000000086
S315600400E000000000000000000000000000000000A6
S315600400F00000000000000000000000000000000096
S315600401000000000000000000000000000000000085
S3156004011032041808042200000000000000000000F9
S315600401200000000000000000000000000000000065
S31560040130C70400000000000000000000000000008A
S315600401400000000000000000000000000000000045
S315600401500000000000000000000000000000000035
S315600401600000000000000000000000000000000025
S315600401700000000000000000000000000000000015
S315600401800000000000000000000000000000000005
S3156004019000000000000000000000000000000000F5
S315600401A000000000000000000000000000000000E5
S315600401B000000000000000000000000000000000D5
S315600401C000010000001000000000000000000000B4
S315600401D000000000000000000000000000000000B5
S315600401E000000000000000000000000000000000A5
S315600401F00000000000000000000000000000000095
S31560040200FFFFFFFFFFFFFFFFFFFFFFFFFFFFFFFF94
S31560041000D10020410020046000000000301004601C
S31560041010201004600010046000000000000000005E
S31560041020000000600000000400000000FFFFFFFFF6
S31560041030D2043041CC03AC04400FC068FFFFFFFF0D
S31560041040400FC06CFFFFFFFF400FC070FFFFFFFF44
S31560041050400FC074FFFFFFFF400FC078FFFFFFFF24
S31560041060400FC07CFFFFFFFF400FC080FFFFFFFF04
S31560041070400D803000002001400D8100001E0000FC
S31560041080400FC01400010D40401F80140000000092
S31560041090401F801800000000401F801C00000000F4
S315600410A0401F802000000000401F802400000000D4
S315600410B0401F802800000000401F802C00000000B4
S315600410C0401F803000000000401F80340000000094
S315600410D0401F803800000000401F803C0000000074
S315600410E0401F804000000000401F80440000000054
S315600410F0401F804800000000401F804C0000000034
S31560041100401F805000000000401F80540000000013
S31560041110401F805800000000401F805C00000000F3
S31560041120401F806000000000401F806400000000D3
S31560041130401F806800000000401F806C00000000B3
S31560041140401F807000000000401F80740000000093
S31560041150401F807800000000401F807C0000000073
S31560041160401F808000000000401F80840000000053
S31560041170401F808800000000401F808C0000000033
S31560041180401F809000000000401F80940000000013
S31560041190401F809800000000401F809C00000000F3
S315600411A0401F80A000000000401F80A400000000D3
S315600411B0401F80A800000000401F80AC00000000B3
S315600411C0401F80B000000010401F80B40000000083
S315600411D0401F80B800000000401F8204000110F91F
S315600411E0401F8208000110F9401F820C000110F9AB
S315600411F0401F8210000110F9401F8214000110F98B
S31560041200401F8218000110F9401F821C000110F96A
S31560041210401F8220000110F9401F8224000110F94A
S31560041220401F8228000110F9401F822C000110F92A
S31560041230401F8230000110F9401F8234000110F90A
S31560041240401F8238000110F9401F823C000110F9EA
S31560041250401F8240000110F9401F8244000110F9CA
S31560041260401F8248000110F9401F824C000110F9AA
S31560041270401F8250000110F9401F8254000110F98A
S31560041280401F8258000110F9401F825C000110F96A
S31560041290401F8260000110F9401F8264000110F94A
S315600412A0401F8268000110F9401F826C000110F92A
S315600412B0401F8270000110F9401F8274000110F90A
S315600412C0401F8278000110F9401F827C000110F9EA
S315600412D0401F8280000110F9401F8284000110F9CA
S315600412E0401F8288000110F9401F828C000110F9AA
S315600412F0401F8290000110F9401F8294000110F98A
S31560041300401F8298000110F9401F829C000110F969
S31560041310401F82A0000110F9401F82A4000110F949
S31560041320401F82A8000110F9402F0000100000043D
S31560041330402F000800030524402F000C06030524F3
S31560041340402F00108000001B402F00148200001BF9
S31560041350402F00188400001B402F001C8600001BD1
S31560041360402F002090000021402F0024A000001987
S31560041370402F0028A8000017402F002CA900001B4E
S31560041380402F003000000021402F0004000079A89F
S31560041390402F004000000F31402F00440065292291
S315600413A0402F004800010920402F004C50210A08B4
S315600413B0402F008000000021402F00840088888828
S315600413C0402F009400000002402F009800000000A7
S315600413D0402F009080000000402F009CA55A000F0B
S315600413E0CF000C1C402F003C00000001CC0014040C
S315600413F0402F009080000000402F009CA55A000CEE
S31560041400CF000C1C402F003C00000001CC001404EB
S31560041410402F009080000000402F009CA55A000CCD
S31560041420CF000C1C402F003C00000001CC001C04C3
S31560041430402F00A000000033402F00908000000081
S31560041440402F009CA55A000ACF000C1C402F003C7C
S3156004145000000001CC000C04402F004C50210A0906
S31560041460FFFFFFFFFFFFFFFFFFFFFFFFFFFFFFFF22
S31560041470FFFFFFFFFFFFFFFFFFFFFFFFFFFFFFFF12
S31560041480FFFFFFFFFFFFFFFFFFFFFFFFFFFFFFFF02
S31560041490FFFFFFFFFFFFFFFFFFFFFFFFFFFFFFFFF2
S315600420000000022005230460250D21204D20212097
S31560042010270D2120290D21202B0D212000000000F1
S315600420200000000000000000000000002D0D2120CB
S315600420302F0D212000000000310D21202D3A202093
S31560042040350D21203D0D2120450D21204D0D2120EA
S31560042050550D21205D0D2120650D21206D0D21205A
S31560042060750D21207D0D2120850D21208D0D2120CA
S31560042070950D21209D0D2120A50D2120AD0D21203A
S31560042080B50D2120BD0D2120C50D2120CD0D2120AA
S31560042090CD242120E1242120F52421200925212095
S315600420A01D25212031252120452521205925212042
S315600420B0D50D2120DD0D2120E50D2120ED0D2120FA
S315600420C0F50D2120FD0D2120050E21200D0E212068
S315600420D0150E21201D0E2120250E21202D0E2120D6
S315600420E0350E21203D0E2120450E21204D0E212046
S315600420F0550E21205D0E2120650E21206D0E2120B6
S31560042100750E21207D0E2120850E21208D0E212025
S31560042110950E21209D0E2120A50E2120AD0E212095
S31560042120B50E2120BD0E2120C50E2120CD0E212005
S31560042130D50E2120DD0E2120E50E2120ED0E212075
S31560042140F50E2120FD0E2120050F21200D0F2120E3
S31560042150150F21201D0F2120250F21202D0F212051
S31560042160350F21203D0F2120450F21204D0F2120C1
S31560042170550F21205D0F2120650F21206D0F212031
S315600421801F32212033322120473221205B32212025
S315600421906F3221208332212097322120AB322120D5
S315600421A0BF322120D3322120750F21207D0F2120BB
S315600421B0850F21208D0F2120950F21209D0F212031
S315600421C0A50F2120AD0F2120B50F2120BD0F2120A1
S315600421D05D27212071272120C50F2120CD0F2120C5
S315600421E0D50F2120DD0F2120E50F2120ED0F2120C1
S315600421F0F50F2120FD0F2120051021200D1021202F
S31560042200151021201D102120251021202D1021209C
S31560042210351021203D102120451021204D1021200C
S31560042220551021205D102120651021206D1021207C
S31560042230751021207D102120851021208D102120EC
S31560042240951021209D102120A5102120AD1021205C
S31560042250B5102120BD102120C5102120CD102120CC
S31560042260D5102120DD102120E5102120ED1021203C
S31560042270F5102120FD102120051121200D112120AA
S31560042280151121201D112120251121202D11212018
S31560042290351121203D112120451121204D11212088
S315600422A06495056000000020C4080000E82404600A
S315600422B00000000000000000E82404600000202004
S315600422C07C700100649505600000008000000000D9
S315600422D0649505600000222000000000C808002004
S315600422E06C14000000000000000000007C702120D7
S315600422F000000000000000800000000000002220B2
S315600423000000000072B6104B83F3088800F03CF8B6
S315600423100E4B07E003F10C049A685968186800F0DC
S315600423201BF823460A4A9342F4D306E01C465968CE
S3156004233054F8080B00F01FF82346064A9342F5D377
S3156004234062B600F0CDF8FEE700000220A022046029
S31560042350DC22046004230460002393420AD210B48E
S3156004236050F8044B41F8044B04339342F8D35DF8B8
S31560042370044B70477047002303E0002240F8042BA7
S3156004238004338B42F9D3704780B500AF484BD3F81A
S315600423908830474A43F47003C2F88830444B454A50
S315600423A09A60454B1B899BB2434A23F001039BB257
S315600423B01381424B1B899BB2404A23F001039BB2B3
S315600423C013813D4B1B889BB203F00403002B07D09B
S315600423D0394B1B889BB2384A23F004039BB21380A3
S315600423E0364B1B889BB203F00403002B07D0334B98
S315600423F01B889BB2314A23F004039BB21380304B93
S315600424001B6803F40053002B03D02D4B2D4A5A60EE
S3156004241007E02B4B4CF220525A60294B4DF628129A
S315600424205A60274B4FF6FF729A60254B1B6823F060
S31560042430A003234A43F020031360234B1B6803F075
S315600424400103002B05D0204B1B681F4A23F00103B0
S315600424501360174B5B6903F40033B3F5003F22D076
S31560042460134B5B6903F40033002B1BD1BFF34F8F0F
S3156004247000BFBFF36F8F00BF0D4B0022C3F850221D
S31560042480BFF34F8F00BFBFF36F8F00BF084B5B690D
S31560042490074A43F400335361BFF34F8F00BFBFF362
S315600424A06F8F00E000BF00F011F800BF80BD00BF71
S315600424B000ED00E00020046000800B4000000D4049
S315600424C000C00B4020C528D910E000E080B400AFFE
S315600424D000BFBD465DF8047B7047FFFFFFFFFFFF4B
S30D600424E05FF800F0D5762020B8
S315600424E830B490F800F020F007016FF0000C10F09B
S315600424F8070491F820F040F048804FF000046FF02C
S315600425080700D1E9002391F840F000F1080082FA47
S315600425184CF2A4FA8CF283FA4CF3A2FA8CF34BBB12
S31560042528D1E9022382FA4CF200F10800A4FA8CF28B
S3156004253883FA4CF3A2FA8CF3E3B9D1E9042382FA59
S315600425484CF200F10800A4FA8CF283FA4CF3A2FA6E
S315600425588CF37BB9D1E9062301F1200182FA4CF2A6
S3156004256800F10800A4FA8CF283FA4CF3A2FA8CF30D
S31560042578002BC6D0002A04BF04301A4612BAB2FA2F
S3156004258882F200EBD20030BC7047D1E9002304F034
S315600425980305C4F100004FEAC50514F0040F91F869
S315600425A840F00CFA05F562EA05021CBF63EA050306
S315600425B862464FF00004AAE7FFFFFFFFFFFFFFFF35
S315600425C802780B78012A28BF9A4240F0D8806DE9D0
S315600425D8044540EA0104CDE902676FF0000C4FEA4E
S315600425E844721AB380EA010414F0070F6BD100F041
S315600425F8070420F0070004F0030521F007014FEAF9
S31560042608C505F0E8042314F0040FF1E804670CFA2E
S3156004261805F462EA040266EA04060BD063EA040374
S31560042628624667EA0407664604E000BFF0E80423E6
S31560042638F1E8046782FA4CF582EA0604A4FA8CF493
S315600426486CBB83FA4CF583EA0705A5FA8CF595B94C
S3156004265850E9022351E9026782FA4CF582EA0604D4
S31560042668A4FA8CF483FA4CF583EA0705A5FA8CF583
S315600426782543DBD09CB92DBAB5FA85F424F0070452
S3156004268827FA04F1DDE9026723FA04F303F0FF008D
S3156004269801F0FF01FDE80445A0EB0100704724BA88
S315600426A8B4FA84F424F0070426FA04F1DDE902672F
S315600426B822FA04F202F0FF0001F0FF01FDE8044586
S315600426C8A0EB0100704714F0030F3CD110F003042B
S315600426D828D150F8082B51F8083B82FA4CF582EA5F
S315600426E80305A5FA8CF55DB950F8042C51F8043C39
S315600426F882FA4CF582EA0305A5FA8CF5002DE8D032
S315600427082DBAB5FA85F424F0070423FA04F122FAFB
S3156004271804F202F0FF0001F0FF01FDE80445A0EBB6
S31560042728010070474FEAC40420F0030050F8082BF0
S3156004273821F0030151F8083B0CFA04F462EA040236
S3156004274863EA0403C9E710F003041DD0A1EB04018E
S3156004275820F00300E40750F8042B06D012D28B78D5
S315600427685FFAA2F4E41A06D12BB1CB785FFAB2F415
S31560042778E41A00D133B920465DF8104B7047A2EBD2
S315600427880300704701F1040150F8042BCC0721F0CB
S31560042798030151F8043B48D824D222F07F4482FAD4
S315600427A84CF594EA1325A5FA8CF50AD165B951F85E
S315600427B8043B84EA0204B4EB036F0ED150F8042B8D
S315600427C8EBE74FEA132355E035F07F454DD108789A
S315600427D8FDE80445C0F1000070474FEA126203F051
S315600427E8FF0347E002EA1C4482FA4CF594EA13456F
S315600427F8A5FA8CF50AD165B951F8043B84EA020452
S31560042808B4EB034F0CD150F8042BEBE74FEA1343B0
S3156004281830E015EA1C4528D10B884FEA124229E0B4
S315600428284FEA124203EA1C4324E002F0FF0482FAE8
S315600428384CF594EA1365A5FA8CF50AD165B951F88D
S31560042848043B84EA0204B4EB032F09D150F8042B41
S31560042858EBE74FEA13630DE015F0FF0F05D10B683C
S315600428684FEA122223F07F4304E04FF00000FDE8AC
S315600428780445704712BA1BBA82FA4CF482EA030416
S31560042888A4FA8CF5B5FA85F402FA04F203FA04F3A9
S315600428984FEA1260FDE80445A0EB1360704700BF79
S315600428A801F0FF01102A2BDB10F0070F08D010F88F
S315600428B8013B013A8B422DD010F0070F42B3F6D193
S315600428C8F0B441EA012141EA014122F007047FF0AC
S315600428D800070023F0E80256083C85EA010586EA03
S315600428E8010685FA47F5A3FA87F586FA47F6A5FA3F
S315600428F887F68EB9EED1F0BC01F0FF0102F007024B
S3156004290832B110F8013B013A83EA010313B1F8D1F5
S315600429180020704701387047002D06BF35460338D6
S31560042928073815F0010F07D1013015F4807F02BF0F
S31560042938013015F4C03F0130F0BC0138704700BF60
S315600429489FED0B6B41EC170B9FED0B5B27EE066B4C
S31560042958BCEEC66BB8EE464BA4EE457BFCEEC77B75
S3156004296816EE101A17EE900A704700BFAFF3008090
S31560042978000000000000F03D000000000000F04187
S315600429882DE9F04F2DED048BD3B00C460391904698
S31560042998089382460EF0A2FD036812931846FFF761
S315600429A89FFD22AF10900822002138460DF03AFCAC
S315600429B8A389180603D52369002B00F05C870023D6
S315600429C89FED7B8BCDE92733CDE91333CDE91533F9
S315600429D829AA0D9326929346119304934446264650
S315600429E8754BD3F8E4500DF0FFFE324603461EA934
S315600429F800975046A847002800F0A880C0F29E8039
S31560042A081E9A252A034601D01E44E9E7B6EB040854
S31560042A18054640F09F8000238DF86F3098460593ED
S31560042A287378751C4FF0FF390135A3F120025A2AD1
S31560042A3800F2C480DFE812F0DB02C200C200D702EB
S31560042A48C200C200C2006A00C200C2003D024C0253
S31560042A58C2004802E902C200E5025B005B005B0053
S31560042A685B005B005B005B005B005B00C200C2004E
S31560042A78C200C200C200C200C2004401C200B5015D
S31560042A88BE02440144014401C200C200C200C2003D
S31560042A98AD02C200C2008E02C200C200C200E001DA
S31560042AA8C2005102C200C200C706C200C200C20008
S31560042AB8C200C200C200C200C2004401C200B5011D
S31560042AC81702440144014401A30217027E00C200AE
S31560042AD82303C2001403EB0602037E00C200E0016E
S31560042AE87C00EF06C200C200F406C2007C00A3F1B3
S31560042AF83002002115F8013B01EB810102EB41012B
S31560042B08A3F13002092AF5D905918EE750460EF0ED
S31560042B18E5FC436815931846FFF7E2FC16900646EB
S31560042B2850460EF0DBFC83681393002E40F03E8615
S31560042B382B7879E72B7848F0200875E70822002176
S31560042B4838460DF06FFB01231E4449E7B6EB0408CB
S31560042B58054611D0289B43442893279B0133072BAA
S31560042B68CBE90048279318DC0BF1080B049B434414
S31560042B780493002D7FF44FAF289B002B41F0AC8162
S31560042B88039B9B8903F04003002B41F01883049848
S31560042B9853B0BDEC048BBDE8F08F039926AA504662
S31560042BA80EF068FF0028EBD10DF1A40BDEE700BF39
S31560042BB8000000000000000054070020CDE9093534
S31560042BC8002BD9D000218DF8E4300123CDE90631F4
S31560042BD8CDE90B118DF86F10029389460E9139ACC5
S31560042BE818F0020302D0029A0232029218F084059F
S31560042BF8289A05D10598029E861B002E00F39380B9
S31560042C0881B10121CBF804102799013101320DF104
S31560042C186F00072928922791CBF8000000F3EF8309
S31560042C280BF1080B83B1279B1CA901330232CBF83D
S31560042C380010072B4FF0020128922793CBF8041053
S31560042C4800F3D1830BF1080B802D00F0AD82069B4F
S31560042C58A9EB0306002E00F3E98218F4807F40F09E
S31560042C681882069BCBF804301A44279BCBF800409D
S31560042C780133072B2892279300F359830BF1080B2A
S31560042C8818F0040F05D0059B02995C1A002C00F312
S31560042C98C483DDE9043102988142ACBF5B181B1812
S31560042CA80493002A40F0F58200232793079B1BB1FF
S31560042CB8079950460DF08AFE0DF1A40B0A9C8EE620
S31560042CC8CDE90935089B073323F00703B3EC028B78
S31560042CD89FEDB37BB0EEC86BB4EE476BF1EE10FABA
S31560042CE8089340F30D85B5EEC08BF1EE10FA00F14A
S31560042CF8C4879DF86F10AC4CAC4B28F08008099AD1
S31560042D08472AC8BF1C460023CDE90B330322079321
S31560042D180292069299460E9300293FF461AF029B8C
S31560042D28013302935CE7A24827990F90102E27DD9A
S31560042D38CDE9173519940546039C04E0103E102E18
S31560042D480BF1080B19DD0131103210230729CDE97F
S31560042D582712CBF80050CBF80430EFDD26AA2146BB
S31560042D6850460DF1A40B0EF085FE002840F09982BA
S31560042D78103E102EDDE92712E5DCDDE91735199CCE
S31560042D880F98CBF80000013132440729CDE92712A0
S31560042D98CBF8046000F39B869DF86F100BF1080B63
S31560042DA82EE7089A432BCDE9093502F1040603D0C8
S31560042DB818F0100F00F039850822002124A80DF0B8
S31560042DC831FA089B39AC1A68214624AB50460EF092
S31560042DD81FFE03460133069001F0EC81069B23EA45
S31560042DE8E37302930021CDE90B1108968DF86F10F1
S31560042DF8079189460E91F3E6CDE90935089B1A468B
S31560042E0800238DF86F30134653F8044B0893002C4F
S31560042E1800F02185099B532B00F0828618F0100375
S31560042E280B9340F07D86B9F1FF3F01F049800B9919
S31560042E384A462046FFF734FD0790002801F02C82A5
S31560042E48079B1B1B069323EAE373DDF82C90029316
S31560042E5873239DF86F10CDF83890CDF83090CDF87F
S31560042E681C90099358E718F0200FCDE9093500F04E
S31560042E78A980089B073323F007031A46596852F852
S31560042E88083B08920A460029C0F2F983B9F1FF3F64
S31560042E9800F09A8253EA020128F0800540F0958290
S31560042EA8B9F1000F40F09682A846CDF8189052AC56
S31560042EB842E0089B53F8042B0592002A80F20384A7
S31560042EC8059A0893524205922B7848F00408ABE5B4
S31560042ED82B238DF86F302B78A6E5CDE9093548F0B4
S31560042EE8100515F0200200F0B583089B073323F01C
S31560042EF8070319465A6851F8083B089101210020CE
S31560042F08B9F1FF3F8DF86F0000F01B8153EA0200A8
S31560042F1825F0800840F01481B9F1000F40F0E88587
S31560042F280029C2D115F0010306931DBF30238DF81D
S31560042F3847310DF2471452AC069A9DF86F104A450C
S31560042F484FF00003B8BF4A46CDE90B3307930292A4
S31560042F580E93E1E6CDE9093548F0100818F0200229
S31560042F6800F06983089B073323F0070319465A68F8
S31560042F7851F8083B089128F480650021BFE72B784F
S31560042F88682B03BF6B7848F40078013548F040082D
S31560042F984AE52B7848F0080846E500BFAFF3008099
S31560042FA8FFFFFFFFFFFFEF7FA86F2120AC6F212093
S31560042FB8F86F212048F0100818F0200FCDE909357C
S31560042FC87FF457AF089A18F0100F52F8043B08922A
S31560042FD840F0818318F0400F00F0798343F3C032E0
S31560042FE811461BB24FE72B7848F001081CE59DF89B
S31560042FF86F202B78002A7FF417AD20228DF86F2076
S3156004300812E52B7848F080080EE5294611F8013B4D
S315600430182A2B01F0B381A3F13002092A0D464FF039
S3156004302800093FF602AD15F8013B09EB890902EB85
S315600430384909A3F13002092AF5D9F6E4089A0A95EA
S3156004304852F8043B089247F63002ADF870207820AF
S315600430589A4A119248F002050022022109904EE725
S3156004306818F0200F0A9500F03A83089B049A1B68A7
S315600430781A60D2175A60089B043308931EE62B78A5
S315600430886C2B03BF6B7848F02008013548F01008AC
S31560043098CAE4099B652B40F35581B5EE408BF1EE86
S315600430A810FA40F0F481279B8549CBF80010013368
S315600430B801320121072B28922793CBF8041000F3D9
S315600430C822850BF1080B1D9B0D998B4280F2F682C3
S315600430D8109B12991A44CBE90013279B2892013353
S315600430E8072B279300F3AB830BF1080B0D9B5C1E30
S315600430F8002C7FF7C5AD102C279B40F33985714E9C
S31560043108DDF80C900F96102505E00BF1080B103CC2
S31560043118102C40F32F8501331032072BCBE9006559
S31560043128CDE92732F1DD26AA494650460EF0A2FCBF
S31560043138002840F0B680DDE927320DF1A40BE6E7F6
S315600431484546012900F04181022952AC11D11198F2
S3156004315803F00F011B09415C04F8011D43EA02737D
S31560043168120953EA0201F3D152AB1B1BA846069314
S31560043178E2E603F00701DB0843EA4273D20830311A
S3156004318853EA0206204604F8011DF2D1EE07EBD590
S315600431983029E9D03023023804F8013C52AB1B1AB3
S315600431A8A84606930446C7E6059B02995E1A002E4E
S315600431B87FF74DAD102E279B41F30680414817943F
S315600431C80F9010251946044604E0103E102E0BF1A4
S315600431D8080B15DD013110320729CBE90045CDE925
S315600431E82712F2DD039926AA50460DF1A40B0EF0B8
S315600431F841FC002855D1103E102EDDE92712E9DC82
S31560043208179C0B4601330F99CBF800103244072BF1
S31560043218CDE92732CBF8046000F3CD84069BA9EB8D
S315600432280306002E0BF1080B7FF717AD2549279B7C
S315600432380F91102E1EDD039D4FF0100904E0103E19
S31560043248102E0BF1080B15DD01331E491032072BBE
S31560043258CBE90019CDE92732F1DD26AA294650467D
S315600432680EF008FCE8B9103E102EDDE927320DF1A0
S31560043278A40BE9DC01330F99CBF800103244072B11
S31560043288CDE92732CBF8046000F3C8810BF1080B4B
S31560043298E3E4039926AA50460EF0ECFB00283FF4B3
S315600432A803AD079B002B3FF46BAC079950460DF0B2
S315600432B88DFB039B9B8903F0400365E4B86F21206B
S315600432C820572120E86F2120279BB148CBF80000BE
S315600432D8013301320120072B28922793CBF8040087
S315600432E800F334850BF1080B002940F084840D99AA
S315600432F808F001030B433FF4C3AC109B12991A44BC
S31560043308CBE90013279B28920133072B279300F3F5
S3156004331805860BF1080B0D99CBF8004001330A4476
S31560043328072BCDE92732CBF804107FF7A7AC0399AE
S3156004333826AA50460EF09EFB0028B2D1289A0DF1B3
S31560043348A40B9DE40D99279B012902F1010203F15F
S3156004335801030BF1080040F321810121072BCDE914
S315600433682732CBF80040CBF8041000F38F8110990C
S31560043378129D01330A44072BC0E90051CDE927326F
S3156004338800F3908108300D99B5EE408BF1EE10FA92
S3156004339801F1FF3500F01C81013301342A44072BFF
S315600433A8CDE927320460456000F306810830149934
S315600433B8416001330A44072B20A9CDE9273201600D
S315600433C8B5DC00F1080B5BE445460A2B72F1000193
S315600433D880F0288330338DF847310123A846069355
S315600433E80DF24714A8E5039926AA50460EF042FB47
S315600433F800287FF456AF289A0DF1A40B24E40399A8
S315600434080F9326AA50460EF035FB00287FF449AF81
S31560043418289A0F9B0DF1A40B04E4102C279B40F308
S31560043428C5865C4EDDF80C800F96102504E0103CCA
S31560043438102C0BF1080B16DD01331032072BCBE980
S315600434480065CDE92732F2DD26AA414650460DF1DC
S31560043458A40B0EF00FFB00287FF423AF103C102C4E
S31560043468DDE92732E8DC01330F992244072BCBE9DF
S315600434780014CDE927327FF70CAC039926AA504687
S315600434880EF0F8FA00287FF40CAF289A01E41D9927
S3156004349800297FF719AF0B9E0D9B9E42A8BF1E4657
S315600434A8002E234406930BDD279B01333244072BF6
S315600434B8CBE900462892279300F3EC850BF1080BB9
S315600434C80B9D002EA8BFAD1B002D00F3EB810B9B53
S315600434D818F4806F2344994640F00A821D9C0D9B1C
S315600434E89C4203DB18F0010F00F03E84109B12998E
S315600434F81A44CBE90013279B28920133072B279399
S3156004350800F30D860BF1080B0D9B1C1B069BA3EBA6
S315600435180905A542A8BF2546002D0DDD279BCBF8D6
S31560043528009001332A44072BCBF80450289227933A
S3156004353800F303860BF1080B002DA8BF641B002C4F
S315600435487FF79EAB102C279B40F31283124EDDF84F
S315600435580C900F96102505E00BF1080B103C102C07
S3156004356840F3088301331032072BCBE90065CDE9B4
S315600435782732F1DD26AA494650460EF07BFA002822
S315600435887FF48FAEDDE927320DF1A40BE6E700BFC1
S3156004359820572120F86F2120E86F212018F0010FA9
S315600435A87FF4DBAE0121072BCDE92732CBF8004047
S315600435B8CBF804107FF7FBAE039926AA50460EF0A3
S315600435C859FA00287FF46DAEDDE9273229A8EEE6BC
S315600435D80D9901297FF7EBAE112940F3FF82AD4EB1
S315600435E8DDF80C900F96102404E00830103D102D79
S315600435F840F3F68201331032072BC0E90064CDE943
S315600436082732F2DD26AA494650460EF033FA0028D8
S315600436187FF447AEDDE9273229A8E7E7039926AAA6
S3156004362850460EF027FA00287FF43BAE289A0DF12F
S31560043638A40BFFF712BB089951F8043B089118F0DC
S3156004364810017FF498AC18F0400000F00F839BB229
S315600436580A4690E4089951F8043B089115F010015C
S315600436680BD115F0400003D00A469BB2012146E40B
S3156004367815F400721CBFDBB2024601213FE45B42CB
S3156004368862EB420245462D20012139E4039926AAB4
S3156004369850460EF0EFF900287FF403AEDDE92732D1
S315600436A829A864E6039926AA50460EF0E3F9002889
S315600436B87FF4F7ADDDE9273229A864E618F0010F2F
S315600436C83FF4DEAA04E508932B78FFF7ADB918F43E
S315600436D8007F40F0EF83DA171146FFF7D4BB18F082
S315600436E8100F40F0758218F0400F40F0DD8318F42F
S315600436F8007F00F06D82089B049A1B681A70BAE40E
S31560043708B4EE488BF1EE10FA80F11886099B612BAA
S3156004371800F0CD84412B00F02085B9F1FF3F00F01D
S315600437280B84099B23F02003472B04D1B9F1000FBE
S3156004373808BF4FF0010948F48073029318EE903A73
S31560043748002BC0F2E484B0EE489B002346460F93F0
S315600437580793099B413B252B00F21083DFE813F09E
S31560043768F7030E030E030E03F003F4030E030E03AE
S315600437780E030E030E030E030E030E030E030E034F
S315600437880E030E030E030E030E030E030E030E033F
S315600437980E030E030E030E030E030E030E030E032F
S315600437A80E030E030E030E03F003F403139A2B7829
S315600437B8002A3FF439A91278002A3FF435A948F457
S315600437C88068FFF731B9CDE90935334B119318F0A1
S315600437D8200200F00B81089B073323F00703194680
S315600437E85A6851F8083B089118F0010F0AD053EA51
S315600437F8020107D009998DF87110302148F0020842
S315600438088DF8701028F480650221FFF778BBCDE93E
S315600438180935FFF7A3BBCDE909354546FFF761BB13
S31560043828CDE909351D4B1193D1E7089B1B688DF8C3
S31560043838E43001230293069339ACFFF7D3BA0399AC
S3156004384826AA50460EF016F900287FF42AAD289A5F
S315600438580DF1A40B4AE44B46062BA14628BF062362
S3156004386807942146CDE90B990D4C02930693CDF83E
S315600438783890FFF751BA402150460CF0C7F8039BBD
S3156004388818601861002800F0A685039A40235361DE
S31560043898FFF795B8E86F2120CC6F2120B86F2120F7
S315600438A8E06F2120102D279B40F37585B848DDF815
S315600438B80C900F9059461026A346044604E0083136
S315600438C8103D102D40F3228201331032072BC1E9D3
S315600438D80046CDE92732F2DD26AA494650460EF05F
S315600438E8C9F800287FF4DDACDDE9273229A9E7E7C2
S315600438F80C98CDF82C805946A54E169BDDF8388071
S31560043908D346DDF84CA088B3B8F1000F00F0F58013
S3156004391808F1FF381598C1E90003279801301A445D
S3156004392807282892279070DC0831069C9AF80000CC
S31560043938A4EB09058542A8BF0546002D0CDD27982A
S3156004394801302A440728C1E900952892279000F394
S3156004395823819AF800000831002DACBF441B044645
S31560043968002C11DC81440C980028CDD1B8F1000FE5
S31560043978CED1069BCDF84CA09945DA46DDF82C8065
S315600439888B4628BF9946A9E5102C279840F3F384FB
S315600439983546099304E0103C102C01F1080116DD44
S315600439A80130103210230728CDE927020E604B60D8
S315600439B8F1DD039926AA58460EF05CF8002840F013
S315600439C8C281103C102CDDE9270229A9E8DC099B91
S315600439D80D60013022440728CDE927024C6000F3C4
S315600439E849839AF8000008318144BCE7089951F87C
S315600439F8043B089118F010017FF4F6AE18F0400005
S31560043A0800F02E819BB20A46EEE60399099326AA2C
S31560043A1858460EF02FF8002840F09581289A099B9D
S31560043A2829A982E70021CDE9069ADFF86881DDF8DD
S31560043A384CA0029505F4806652AC8C4605E00A2BC8
S31560043A4872F1000236D34B462A46991841F10001B1
S31560043A58A8FB010525F0030000EB9500091A581A1E
S31560043A684FF0CC3562F1000E05FB00F508FB0E55E8
S31560043A78A0FB0890054409F0010E0520AEFB000E74
S31560043A8840184FEA5909303004F8010C49EAC579F7
S31560043A980CF1010C013C6D08002ED0D09AF8001088
S31560043AA88C45CCD1BCF1FF0FC9D00A2B72F1000248
S31560043AB880F01D81029DCDF84CA052AB1B1BDDE93D
S31560043AC8069ACDF834C0A8460693FFF735BA039923
S31560043AD80F9326AA50460DF0CDFF00287FF4E1AB7C
S31560043AE89DF86F10289A0F9B0DF1A40BFFF788B801
S31560043AF8012945467FF428AB6CE40C9801380AF131
S31560043B08FF3A0C9006E7039926AA50460DF0B2FFD1
S31560043B1800287FF4C6AB289A0DF1A40BFFF7D3BA35
S31560043B2824AD0822002128461F940CF07BFBB9F1CA
S31560043B38FF3F00F0A7800026CDF80880B0460CE069
S31560043B4839A950460DF064FF431C404400F03283A3
S31560043B58484508DC00F0E58380461F9A92592B464F
S31560043B680436002AECD1CDF81880DDF8088096E092
S31560043B7807490F9101330F99CBF800102244072B9C
S31560043B88CBF80440CDE927327FF778A8FFF7CFBB97
S31560043B98E86F2120CDCCCCCC0399099326AA584644
S31560043BA80DF068FF002840F0CE809AF80000289A45
S31560043BB8099B29A9D0E6039926AA50460DF05AFF0F
S31560043BC800287FF46EAB289A0DF1A40BFFF73FB873
S31560043BD8089B049A1B681A60FFF74DBABC490F9193
S31560043BE801330F9901602A44072BCDE927324560D2
S31560043BF87FF7DCABE0E4109B12981A44CBE9000328
S31560043C08279B28920133072B279300F387810BF1AF
S31560043C18080B0029BFF67FAB4D421031AC490F91B2
S31560043C2880F2F1821026894605E00BF1080B103DF7
S31560043C38102D40F3E88201331032072BCBE9009646
S31560043C48CDE92732F1DD039926AA50460DF012FF15
S31560043C5800287FF426ABDDE927320DF1A40BE6E7ED
S31560043C6818F400721CBFDBB20246BDE518F4007294
S31560043C781CBFDBB20246FFF77EB92D218DF86F10A3
S31560043C88FFF739B80023194600951FAA50460DF068
S31560043C98E5FE03460133069000F08C821F94069B6A
S31560043CA8002B45D0632B00F322810023079339AC9C
S31560043CB80822002128460CF0B5FA0095069D1FAA2D
S31560043CC82B46214650460DF0C9FE854240F07C835A
S31560043CD8069A0023A354994622EAE273CDE90B991E
S31560043CE89DF86F100293CDF83890FFF715B8169BB8
S31560043CF81599E41A1A4620460CF028FB9AF80130FE
S31560043D080BB10AF1010A4FF0000C9CE65C468B463F
S31560043D1801330F99CBF800102A44072BCDE92732D3
S31560043D28CBF8045000F3ED800BF1080BFFF7CFBB1B
S31560043D38069B9DF86F100293CDE90B3399460E9353
S31560043D480793FEF7E9BFDA46FFF7ABBA039926AAE3
S31560043D5850460DF08FFE00287FF4A3AA1D99289A71
S31560043D680DF1A40BFFF7C0BA069BA3EB09050D9BDF
S31560043D781C1BA542A8BF2546FFF7DEBB4D4602219C
S31560043D8824AB01931FAB00932A461DAB5046B0EE95
S31560043D98490B00F071FB099B672B044600F02781E9
S31560043DA8099B472B00F02381099B23F020004628B2
S31560043DB804EB050105D12378302B00F0CF821D9BD7
S31560043DC81944B5EE409BF1EE10FA40F02C810B468F
S31560043DD81B1B0D931D9A0B92472800F00F814628EA
S31560043DE800F0BD810999531E61291D9300F0EA828A
S31560043DF8412940F00D8150210120002BB6BFC2F144
S31560043E0801032B222D22092B8DF880108DF8812031
S31560043E1840F31C820DF19705DFF8B8C02A461046B0
S31560043E28ACFB0312D20802EB8201A3EB41013031E9
S31560043E3800F8011C19466329134600F1FF32EEDCCB
S31560043E48303302F8013C831EAB4280F0A1820DF147
S31560043E58810213F8011B02F8011FAB42F9D152AB78
S31560043E68181AA0F1AD0314930D9B149A012B1A44E6
S31560043E78069240F30482069B109A1344069326F42A
S31560043E888063069A43F480780023CDE90B3322EAEB
S31560043E98E2720E9302920F9B002B40F0BD809DF850
S31560043EA86F109946FEF738BF089B049A1B681A80F8
S31560043EB8FFF7E1B843F3C01211465BB2FEF7E3BFFE
S31560043EC82046FEF70DFB03460690FEF7BCBF00BF0F
S31560043ED8E86F2120CDCCCCCC039C26AA214650463B
S31560043EE80DF0C8FDA38903F04003FEF74DBE591CC7
S31560043EF850460BF08BFD0446002800F05B81079062
S31560043F08D6E6039926AA50460DF0B4FD00287FF438
S31560043F18C8A9289A0DF1A40BFFF7D9BA039926AA5A
S31560043F2850460DF0A7FD00287FF4BBA9DDE92732CA
S31560043F381D990DF1A40B6CE64FF00609FFF7FBBB60
S31560043F4809F1010502211BE74D46032118E71DA85F
S31560043F58B0EE490B00F054FAB4EE007B20EE077B12
S31560043F68B5EE407BF1EE10FA00F08D81B348B3EEFE
S31560043F78004B09F1FF33224605E0B5EE407BF1EECE
S31560043F8810FA12D00B4627EE047BFDEEC76B154676
S31560043F9816EE901A415C02F8011B591CB8EEE65BF2
S31560043FA803F1FF3137EE457BE7D1B6EE005BB4EE3D
S31560043FB8C57BF1EE10FA00F30B81B4EE457BF1EEA6
S31560043FC810FA04D116EE901AC90700F10181002B84
S31560043FD8C0F2178101331344302102F8011B93425E
S31560043FE8FBD11B1B0D93099B23F02000F2E6F30714
S31560043FF800F1CE80249B1D9A1B1B0D93D31C0B9238
S3156004400801DB91451BDA099B023B0993531E1D93F9
S315600440189DF824100020F0E62D218DF86F104FF0DE
S315600440280009FEF77CBE249B8B42BFF4D1AE3025D3
S315600440385A1C24921D70249B9942F9D8C8E60D9996
S315600440488A42C0F2A880F00740F13F81109BD318DA
S315600440580693710502D5002A00F33981069BDDF8BB
S31560044068088023EAE37302936723099300230E9374
S315600440780C9310E70399099326AA58460DF0FAFC9F
S3156004408800287FF460AE9AF80000289A099B29A94B
S31560044098814468E4039926AA50460DF0EBFC00288F
S315600440A87FF4FFA8289A0DF1A40BFFF709BA7823C1
S315600440B88DF87130B9F1630F4FF030038DF87030B5
S315600440C848F0020600F3D1800023079339AC48F41C
S315600440D88173029318EE903A002B1BDBB0EE489B73
S315600440E800230F93099B612B7FF433ABB0EE490B26
S315600440F81DA800F085F9B4EE007B20EE077BB5EECB
S31560044108407BF1EE10FA00F0BE804D482FE700239D
S31560044118464607932D230F93B1EE489BE2E703992E
S3156004412826AA50460DF0A6FC00287FF4BAA81D9C62
S31560044138289A0DF1A40BFFF7E7B9039926AA504606
S315600441480DF098FC00287FF4ACA81D9C0D9B289A5A
S315600441581C1B0DF1A40BFFF7EFB95823A8E70B9ABC
S3156004416806F00103002A43EA090340F31781002B8A
S3156004417840F0DC800B9B069366230993720500F175
S31560044188A880069BDDF8088023EAE37302936DE74B
S315600441986119472015E60D9B109A9A180B9B06928F
S315600441A8002B40F3868067230993E7E725490F9137
S315600441B8FFF759B9039A938943F0400393814FF003
S315600441C8FF330493FEF7E3BC1F490F91FFF71AB850
S315600441D8249512F8013CC57BAB4211460AD14FF0CF
S315600441E8300C01F801CC24994B1E249311F8013C38
S315600441F89D42F6D0392B16BF0133837ADBB201F8B8
S31560044208013C1346EDE601330F99CBF800102A44B6
S31560044218072BCDE92732CBF804507FF77AA80399A0
S3156004422826AA50460DF026FC00287FF43AA8DDE954
S3156004423827320DF1A40BFFF76EB800BFCC6F2120AF
S31560044248B86F2120F86F2120E86F2120002840F0FC
S315600442588F8030228DF882200DF18302303302F884
S31560044268013B20ABD31A1493FEE509F101015046CC
S315600442780BF0CCFB044600289CD0079027E7F5078B
S315600442887FF5FDADF7E5584B5848099A612A18BF7A
S31560044298184601231D936AE67323CDF80890CDF872
S315600442A818909DF86F100E9081460C900993FEF74E
S315600442B833BDC3F101031A4422EAE273DDF80880C8
S315600442C80293672306920993D0E60692C1E66723AA
S315600442D8099313990B78FF2B00F0818000250B9ABC
S315600442E8284603E001300131FF2B08D0934206DAF1
S315600442F8D21A4B78002BF5D10B780135F4E7139174
S315600443080C900E950B920C9A0E9B1699DDF8088004
S315600443181344069A01FB0323069323EAE373029381
S31560044328B9E5DDF80880CDF81890B8E4109BD5187F
S3156004433805EB09030693662309931FE718EE903A7B
S31560044348002BB4BF2D219DF86F10294C294BB8BF9B
S315600443588DF86F1028F08008FEF7D1BCB5EE409B47
S31560044368F1EE10FA3FF42BADC5F101031D9327E571
S315600443780DF1820272E7204DFFF72ABB089A6B7823
S315600443880D4652F8041B089241EAE179FEF74CBBE4
S315600443980223149368E518490F91B9E4DDF8088097
S315600443A82BB9012366220293099206935EE6109B53
S315600443B85D1C05EB0903069323EAE37302936623FC
S315600443C8099353E6702117E5039A938943F04003EA
S315600443D89381FEF766BF0C23CAF80030EFE6002324
S315600443E80E930C938FE700BFCC6F2120B86F212002
S315600443F8B06F2120B46F2120E86F2120FFFFFFFFF3
S3156004440830B482B08DED000B019A194C22F000434A
S315600444180021A342016021D8009C1C431ED0154C80
S31560044428144054B99FED107B20EE077B8DED007B1D
S31560044438019A6FF0350122F0004322F0FF42DDE96C
S31560044448004522F4E00242F07F551B1545F4001539
S31560044458A3F2FE33CDE900450B4403609DED000BE2
S3156004446802B030BC704700BF000000000000504333
S31560044478FFFFEF7F0000F07F2DE9F04F2DED028BF3
S315600444888FB0CDE904320091816B1A9D8DED020BD4
S3156004449857EC106B044641B1C26B4A6001239340E2
S315600444A88B600CF0CDFB0023A363B7F10008B4BF9F
S315600444B8012300232B60C24BBCBF28F00048CDF80B
S315600444C80C8033EA080300F0A3809DED028BB5EEF9
S315600444D8408BF1EE10FA0FD1049A012313601B9BEB
S315600444E813B11B9AB74B1360B74B019301980FB07E
S315600444F8BDEC028BBDE8F08F0DA90CAA2046B0EE80
S31560044508480B0CF0D3FE5FEA1851054640F09880D4
S31560044518DDE90C01014401F23243202B40F3FF82AA
S31560044528C3F1400308FA03F801F2124326FA03F3C7
S3156004453848EA030307EE103AB8EE477B013917EEEB
S31560044548906A53EC172B0127A6F1F8739FED963BF7
S315600445589FED977B9FED985B06EE901A43EC122BC2
S31560044568B8EEE64BB7EE086B32EE466BA6EE037B07
S31560044578A4EE057BFDEEC76BB5EEC07BF1EE10FAD3
S3156004458816EE909A08D5B8EEE66BB4EE476BF1EE84
S3156004459810FA18BF09F1FF39401AB9F1160F00F17C
S315600445A8FF3800F24B81894E06EBC90696ED007B0F
S315600445B8B4EEC78BF1EE10FA58D50023B8F1000FA4
S315600445C809F1FF390993C0F23F8100230693B9F1D3
S315600445D8000F51DA069BCDF82090A3EB09030693E6
S315600445E8009B092BC9F1000A4FF000094CD8052B2A
S315600445F840F39382043B00930026009B023B032B03
S3156004460800F28085DFE813F0F103EE03E503C703E0
S31560044618049AC8F3130842F20F7358EA060813603B
S315600446281DD11B9B002B00F06985694B01930833E8
S315600446381B9A019813600FB0BDEC028BBDE8F08F2E
S3156004464818EE906AC6F3130653EC182B46F07F539C
S315600446580C98A1F2FF31002743F4401376E71B9BBD
S31560044668002B40F075835B4B01933FE7002840F3CA
S315600446783784002309930693009BCDF82090092B71
S31560044688C8444FF0000AB2D900230126009307965E
S315600446984FF0FF3B05930021E163CDF82CB020462B
S315600446A80CF0A8FA0190002800F03485019BA363F6
S315600446B8BBF10E0F00F2EF80002E00F0EC80089A32
S315600446C8002A40F3E883414E02F00F0306EBC30366
S315600446D8D60593ED007B4FEA221340F1AE833E4A3A
S315600446E892ED086B03F00F03032188EE064B5BB16A
S315600446F8394AD80704D592ED006B013127EE067B5B
S315600447085B1002F10802F4D184EE075B099B3BB1A6
S31560044718B7EE007BB4EEC75BF1EE10FA00F17E8467
S3156004472807EE901AB8EEE76BB1EE0C7BA6EE057B46
S3156004473817EE901A53EC172BA1F15073BBF1000FC7
S3156004474800F0968008995846FDEEC56B43EC142B29
S315600447581E4E16EE903A06EBC0023033B8EEE67B90
S315600447685FFA83FC12ED026B35EE477B019A079B71
S315600447780132002B00F00D84B6EE003B83EE065B37
S31560044788019E35EE445BB4EEC75BF1EE10FA86F82B
S3156004479800C000F33884B7EE002BB2EE044B002653
S315600447A834E000BFAFF3008061436F63A787D23FED
S315600447B8B3C8608B288AC63FFB799F501344D33F9E
S315600447C80000F07F215721202057212078352120A9
S315600447D80870212014702120503521200136864224
S315600447E859DA27EE047B25EE045BFDEEC76B16EEFD
S315600447F8903AB8EEE63B303337EE437BB4EEC57B8E
S31560044808F1EE10FA02F8013B00F1FD8332EE476BD4
S31560044818B4EEC56BF1EE10FAE0D5019E134601318C
S3156004482802E0B34200F01E841A4613F8010D3928D3
S31560044838F7D00130C0B2187000913DE10123B8F198
S31560044848000F0993BFF6C1AEC0F1010306934FF09A
S315600448580008BCE607EE901AB1EE0C6BB8EEE77B7F
S31560044868A5EE076B16EE901A53EC162BA1F150734E
S3156004487843EC162BB1EE047B35EE477BB4EEC67B70
S31560044888F1EE10FA00F3FD83B1EE466BB4EEC67B27
S31560044898F1EE10FA1CD40D9B002B56DB089A0E2AEF
S315600448A853DCA24E089B06EBC306059B002B96EDCC
S315600448B8006B15DABBF1000F12DC09D1B1EE047B8B
S315600448C826EE077BB4EEC78BF1EE10FA00F2D983B5
S315600448D84FF0000A019A5746059B6FEA030BF7E106
S315600448E888EE067BBDEEC77B019B17EE102ABBF1EB
S315600448F8010F02F13002B8EEC75B03F8012BA5EE8F
S31560044908468B00F0F882B2EE044B012211E088EE81
S31560044918067BBDEEC77B013217EE101A5A4501F1C4
S315600449283001B8EEC75B03F8011BA5EE468B00F0B1
S31560044938E28228EE048BB5EE408BF1EE10FAE6D1EE
S31560044948089A013200921A46B6E0079A002A40F09D
S31560044958D0800023069E0793CDF828A01F4666B12B
S31560044968B8F1000F09DD4645069A3346A8BF4346A3
S31560044978D21A0692F61AA8EB0308BAF1000F0BD0FE
S31560044988079B1BB10A9B002B40F0E98229465246D5
S3156004499820460CF0E5FA0546012120460CF0FCF9A0
S315600449A88246B9F1000F40F0A081009B012B40F3C9
S315600449B8D3810120404410F01F0000F09380C0F1B9
S315600449C82003042B40F3E281069BC0F11C000344D8
S315600449D8069306448044069B002B05DD29461A4641
S315600449E820460CF017FB0546B8F1000F05DD514665
S315600449F8424620460CF00EFB8246099B002B40F08B
S31560044A088A81BBF1000F40F34681079B002B40F077
S31560044A189D80089B01330093DDF80480012607E036
S31560044A28294600230A2220460CF014F90136054665
S31560044A38514628460CF0B4FD5E4500F1300308F88B
S31560044A48013BEDDBBBF1000F019ACCBFD8464FF0B2
S31560044A5801089044002629460122204602930CF058
S31560044A68D9FA514605460CF04DFB002840F3F4810B
S31560044A78019902E0414500F00782424608F1FF3891
S31560044A8812F8013C392BF5D0013388F800305146C9
S31560044A98204602920CF0D4F8029A6FB136B1BE423F
S31560044AA804D0314620460CF0CBF8029A0292394675
S31560044AB820460CF0C5F8029A0292294620460CF064
S31560044AC8BFF8029A009900231370049B19601B9B14
S31560044AD8002B3FF40BAD01981A600FB0BDEC028B46
S31560044AE8BDE8F08F1C23069A1A4406921E4498441D
S31560044AF871E7009A012A40F3BA810BF1FF329245B5
S31560044B08C0F27D81AAEB0203BBF1000F0A9380F21F
S31560044B18BE82069BA3EB0B067CE101266DE5C3F119
S31560044B28200306FA03F307EE103A05E578352120E3
S31560044B38394600230A2220460CF08CF80B9B002B7E
S31560044B48074640F3CA82CDF820809B46002E00F3C0
S31560044B584F81B9F1000F40F0E581B946019E731E95
S31560044B685B440993029B03F001030A935146284662
S31560044B780CF016FD3946834628460CF0C3FA4A46B5
S31560044B885146804620460CF0DFFAC26801460BF1AE
S31560044B983003002A38D1CDE9060328460CF0B2FA68
S31560044BA80699059020460CF04BF8059A079B002A4F
S31560044BB85DD1009A1AB90A9A002A00F07282B8F18D
S31560044BC8000F45DB099AB046B24208F8013B00F08B
S31560044BD8C081294600230A2220460CF03BF84F453B
S31560044BE8054639464FF000034FF00A02204638D08E
S31560044BF80CF030F84946074600230A2220460CF092
S31560044C0829F846468146B1E7204605930CF018F81C
S31560044C18B8F1000F059B08DB029A009902F00102BD
S31560044C2848EA010852EA08022FD129460122204699
S31560044C3800930CF0EFF9514605460CF063FA002828
S31560044C48009B40F3FE80392B00F010820BF1310390
S31560044C58324602F8013B089B01333E4600934F46B1
S31560044C6815E70BF0F7FF4646074681467EE7B8F137
S31560044C78000FC0F25682009948EA01080A9951EA77
S31560044C88080800F04E82002A9CDD392B00F0EE817C
S31560044C9832460133DDE7009B022B7FF7B6AEBBF1E4
S31560044CA8000F40F0268151465B46052220460BF0EC
S31560044CB8D1FF0146824628460CF024FA002840F3C0
S31560044CC81881089B019A03F1010B312302F8013B11
S31560044CD80BF1010351462046029200930BF0B0FF94
S31560044CE8029A002F7FF4E2AEE6E601464A4620467B
S31560044CF80CF036F9009B012B824640F391804FF005
S31560044D080009DAF810300AEB830318690BF0F2FF2E
S31560044D18C0F120004EE6514628460CF0F3F9002807
S31560044D28BFF66FAE294600230A2220460BF092FF8F
S31560044D38089B03F1FF38079B0546002B7FF4F8AE02
S31560044D480B9B002B40F3B581089A00929B4663E659
S31560044D58AE4B019303336BE4029B002B7FF429AEBD
S31560044D68DDE90212C2F31303002B7FF422AEA84BCB
S31560044D7813402BB1069B0133069308F101080123FE
S31560044D88B9F1000F40F08181994612E63FF423AEEB
S31560044D98C0F13C03A7E601230793059B089A1344CD
S31560044DA803F1010BBBF1010FDC460B93B8BF4FF05F
S31560044DB8010CBCF1170F40F39D81012204235B00AB
S31560044DC803F114006045114602F10102F7D9E16363
S31560044DD865E401230793059B002B39DD0B939B46FA
S31560044DE89C46E6E700230793D7E700230793F2E791
S31560044DF83946324620460CF00DF90746A9E6A2EB79
S31560044E080A039944069B1E465B4406930023D844CA
S31560044E1892460A93012120460BF0BEFF07469EE59B
S31560044E28029B002B7FF46BAFDDE90201C1F3130328
S31560044E380A46002B7FF463AF99E70221B0EE484B2C
S31560044E4855E47FF405AFDA073FF5FDAE324600E771
S31560044E58012305939B461EE403D1029BDB073FF5BA
S31560044E6807AE424618F8013D302BFAD00FE6002FFC
S31560044E7800F08B8003F23343069ACDF828A01646D1
S31560044E881A4498440692C5E7009B01990133009336
S31560044E9831230B70FBE500F0E080089B5D4E5B42B6
S31560044EA803F00F0206EBC20292ED006B1B1128EEAB
S31560044EB8066BB0EE465B00F01A81574A0020022161
S31560044EC8DE0705D592ED007B0131012025EE075BEF
S31560044ED85B1002F10802F3D1002806FE055B15E4AF
S31560044EE8C0F101034FF000080693CDF82480FFF75C
S31560044EF8C3BB019AF0E4089938EE088B0131B4EE25
S31560044F08C68BF1EE10FA009108DCB4EE468BF1EE2E
S31560044F1810FA05D117EE102AD00701D5019E83E44D
S31560044F281A46C9E5796820460BF064FE06460028E9
S31560044F3800F0FC803B6902339A0007F10C010C30DF
S31560044F4800F02AFF3146012220460CF063F88146B8
S31560044F5804E6089A01323E4600924F467BE51A46B5
S31560044F68394620460BF0FCFF2A460146074620468A
S31560044F780BF040FF2946054620460BF061FE0A9B66
S31560044F88BAEB030A3FF408AD00E50C9BC3F136039C
S31560044F9872E7019B24EE063B012883F800C000F003
S31560044FA8A480B2EE044B019B034427EE047BFDEE1A
S31560044FB8C76B16EE900A303002F8010B9342B8EECE
S31560044FC8E65B37EE457BF0D1B6EE006B33EE065BF7
S31560044FD8B4EEC57BF1EE10FA5FDC36EE436BB4EEE5
S31560044FE8C67BF1EE10FA08D40D9B002BFFF6B1AC24
S31560044FF8089B0E2B3FF7ADAC54E41A46013B12F8F6
S31560045008010C3028F9D04B1C009355E51470212007
S315600450180000F07F7835212050352120BBF1000F40
S315600450283FF418AC0B9800287FF735ACB2EE044B06
S3156004503825EE045B013107EE901A089BB8EEE76B20
S31560045048B1EE0C7BA5EE067B17EE906A591E53ECFF
S31560045058172BA6F15073FFF777BB0221B0EE485BB6
S31560045068FFF754BB01313120FFF7E5BB089B019973
S31560045078B0460133009339233E4608F8013B4F4650
S31560045088FBE44FF0000A57461BE6994639E6069B49
S315600450981E465B44D8440693BCE6019E0131FFF77D
S315600450A8C3BB392BE2D0B8F1000F3FF7CFAD324618
S315600450B8CFE5009B022B0BDC089B00935146DDF879
S315600450C82CB00CF06DFA019A00F130031370B9E450
S315600450D8DDF82CB0CDF82080E1E5009B022BF7DCE7
S315600450E8DDF82CB0CDF8208030E513466CE7022154
S315600450F8FFF70CBB0021E163FFF7D1BA144B0193A8
S31560045108FFF7F4B90026E663314620460BF072FDD4
S31560045118019090B90F4B1048002240F2AF1100F08D
S315600451284FFB002A3FF781AD324692E5094B0A48A0
S31560045138324640F2EF2100F043FB019BA363012250
S315600451484FF0FF3305960B9307929B46FFF7A3BB75
S31560045158087021202C6F212018702120FFFFFFFF83
S315600451682DE9F04F55EC104B2DED0A8B2E0D11EEF3
S3156004517890CA06F1FF3E40F2FD7089B086452A461C
S3156004518821468DED001A4FEA1C5700F2C780C7F313
S315600451980A0EAEF2BE307F2898BF002000F2208146
S315600451A8BFEE000BD84CD94B1444C4F3463503EB15
S315600451B8451693ED006B93ED027B96ED128B96ED97
S315600451C8189B96ED162B260D241505EE904A360582
S315600451D893ED0C4BB8EEE55B951BA5EE062BA5EE99
S315600451E8079B93ED04AB93ED105B93ED08BB93EDCE
S315600451F8067B93ED0A6B93ED0E3B0C1E45EC1C4B3C
S31560045208ACEE080BA0EE053BA0EE046B20EE0A5B41
S3156004521830EE024B20EE058BA0EE0B7BA8EE036BFB
S3156004522832EE442BA8EE067B32EE002BB0EE483BFA
S3156004523839EE022B90EE053B34EE085B20EE080B44
S3156004524834EE454B32EE036B34EE084B36EE046BA4
S31560045258A0EE076B35EE064B21EE048B18EE902A0A
S31560045268B0EE487BC2F30A556FF47273EB183E2BA3
S3156004527891EE047B35EE445B35EE065BA1EE057B69
S3156004528800F2E980A24B93ED024B93ED005BB0EE1E
S31560045298441B93ED042BA8EE051B93ED066B11EEE8
S315600452A8101A31EE441B01F07F0293ED0E4BA1EE0A
S315600452B8028BA1EE068B93ED0C6B37EE087B27EE1B
S315600452C8072B921802F10F0403EBC202A7EE046BD4
S315600452D892ED1C4B03EBC40293ED0A3B93ED085B1A
S315600452E853F834605768A7EE035B4018002422EE2F
S315600452F8023B37EE047BA219A2EE057B07EB40332B
S31560045308A3EE067B002D00F0B58043EC102BA7EEC8
S31560045318000B09B0BDEC0A8BBDE8F08F11EE103AAC
S31560045328D81883466FF001094CEB0C001BF1FF3A61
S3156004533860F1000E6FF40018D14578EB0E0E0190FB
S31560045348C0F0508114EB040E45EB050A1EF1FF3BD1
S315600453586AF10000D94578EB0000C0F05581002D4C
S3156004536880F21B81C7F30A0E40F2FE30864540F38D
S31560045378018140F23340864500F39881A0EB0E0024
S3156004538803462038019001984FF0FF3909FA00FB6B
S3156004539809FA03F8C3F1200A48EA0B08184629FAF9
S315600453A80AFB09FA03F9009B48EA0B0823EA090988
S315600453B82CEA080859EA080840F0DC80C3400198DA
S315600453C80CFA0AFA43EA0A032CFA00FC43EA0C03C9
S315600453D803F00103980422F00042C6F30A0616E0B5
S315600453E8009B13EB03094CEB0C0A6FF0010819F1E7
S315600453F8FF304AF1FF3380456FF4001070EB030801
S31560045408CB46CDF804A028BF0020C0F03A81AEF29E
S31560045418BE337F2B40F2FF7C4ED93E4B00209A4226
S3156004542808BF814200F0C78040F2BD34A64556D90C
S31560045438012972EB030334BF0123002367458CBF3C
S3156004544800270127BB420ED109B0BDEC0A8BBDE823
S31560045458F04F00F079B9002BC0F29580B5F5816FED
S315600454683BD9002AF0DB09B0BDEC0A8BBDE8F04FE6
S3156004547800F072B9A14280F2A180B7EE003B03F155
S315600454887F5101F50011104641EC150B27EE057B9B
S3156004549835EE076BB0EEC64BB4EEC34BF1EE10FABD
S315600454A83AD49FED150B26EE000B09B0BDEC0A8BBA
S315600454B8BDE8F04F0CF0A2BC002E7FF471AE9FEDF0
S315600454C8107B45EC164B26EE077B55EC174B25F0FF
S315600454D800422146A2F1507262E60025D2E688426D
S315600454E89341B7EE000B34BF31EE000B30EE410B3F
S315600454F80FE700BFAFF30080000000000000100053
S315600455080000000000003043AB6A19C04036212011
S31560045518884621200000F03FB5EEC06BF1EE10FA24
S3156004552835EE465BBFEE004B35EE075B58BFB0EE13
S31560045538434B36EE043B34EE437B37EE067B37EE5D
S31560045548057B37EE037B37EE446BB5EE406BF1EEC5
S3156004555810FA04D12A4601F0004343EC162B9FED5A
S31560045568705B8DED045B9DED047B27EE057B8DED0D
S31560045578067B96E745EC104B09B0BDEC0A8BBDE893
S31560045588F04F0CF02BBCB7EE000B38EE000B00287E
S315600455983FF4BFAEB1EE400BBBE60020C7F30A0E7C
S315600455A835E74918644B82F400224FF000005241F3
S315600455B88842934123D3B7EE000BAAE603F1404130
S315600455C89FED596B01F57001104641EC100BA7EE7F
S315600455D8000B20EE060B09B0BDEC0A8BBDE8F04F54
S315600455E800F0DAB803465BEA0303DAD02119534BB1
S315600455F84FF0000645EB02028E4293415BD245ECBE
S31560045608174B37EE010B84E6002D20EE000B6EDA9D
S31560045618C7F30A02A2F2FF31342968D8C2F5866252
S315600456284FF0FF31A2F11D04033201FA04F601FAC0
S3156004563802F0C2F120053043009B21FA05F6304397
S31560045648914023EA01012CEA000001434FD1D3407B
S315600456581A460CFA05F52A432CFA04F4224312F086
S31560045668010253D110465EEA0A0A42D1BCF1000F20
S31560045678BFF64FAE09B0BDEC0A8BBDE8F04F00F03B
S3156004568873B859EA0A068CD02D4F0026BD4208BF66
S31560045698B4420DD1009B8CF4002CDB18264B4CEBE2
S315600456A80C0C4E4573EB0C03A9D384E7002092E6F1
S315600456B8211945EB02020198002310F5001F08BF63
S315600456C89B459CD11F48824208BF99423FF473AFF9
S315600456D8824234BF002201229C45B4BF4FF0000CBD
S315600456E84FF0010C624515D09FED110B11E60020B1
S315600456F8B9E7BCF1000FBFF60CAEB7EE006B86EEE9
S31560045708007B8DED027B9DED020B02E60120B1EE76
S31560045718400BA8E721EE010BFBE500BFAFF3008061
S315600457280000000000001000000000000000007F78
S3156004573800000000000000000000F0FF0000E0FF29
S315600457480000F03F0000E07F9FED010B0CF034BBD6
S3156004575800000000000000109FED010B0CF02CBB4C
S31560045768000000000000007082B00028BFEE006BE5
S31560045778B7EE007B07FE067B8DED007B9DED000B87
S315600457889FED037B222080EE070B02B00CF006BB6C
S3156004579800000000000000009FED076BB0EEC07BC0
S315600457A8B4EE467BF1EE10FA00DC704722200CF06A
S315600457B8F5BA00BFAFF30080FFFFFFFFFFFFEF7F7F
S315600457C880B586B002AFF860B9607A603B607B6882
S315600457D80093BB68FA68396804480CF0AAFCBA688E
S315600457E8F96838680CF03EFB00BEFDE7F84E2120E8
S315600457F880B485B000AFF860B9601346FB80FB6877
S31560045808002B0ED0BB68002B0BD0FB8843F22352C7
S31560045818934207D0FB88002B04D1054B01221A70EA
S3156004582800E000BF1437BD465DF8047B704700BFCF
S315600458382C1D002080B584B000AF786043F22153F4
S31560045848FB81012279680E480FF0E2FC0346FB816E
S31560045858FB89002B02D00123FB810CE0094B1B78E2
S31560045868DBB283F00103DBB2002BF7D1054B0022D0
S315600458781A700023FB81FB8918461037BD4680BD24
S31560045888941000202C1D002080B588B000AF786085
S31560045898396000237B617B68002BFCD03B68002B56
S315600458A8FCD00CF0ECFAF860374BD3F82C21364B65
S315600458B8D3F830319A4216D001237B61324BD3F840
S315600458C82C21314BD3F828311A442F4BD3F8303175
S315600458D8D31A2D4AD2F82821B3FBF2F101FB02F25E
S315600458E89B1ABB6101E00023BB61274BD3F82821CF
S315600458F8BB69D31A013BBB61BA693B689A4205D254
S31560045908F8680CF0CDFA4FF0FF3338E000233B61BA
S315600459181EE03B697A681A441B4BD3F82C31591C30
S315600459281948C0F82C111178174A13440A4683F8A3
S315600459383421154BD3F82C21134BD3F828319A42CA
S3156004594803D3114B0022C3F82C213B6901333B6115
S315600459583B683A699A42DCDB0023FB617B69002B6E
S3156004596803D109480CF0ACFAF861F8680CF098FAB7
S31560045978FB69002B01D13B6801E04FF0FF33184601
S315600459882037BD4680BD00BF0809002080B588B0B1
S3156004599800AF7860396043F22153FB823B68BB6190
S315600459A87B68002BFCD03B68002B01D1002368E0A0
S315600459B8364B1B68002B01D1002362E00CF05FFABA
S315600459C83861334BD3F82C21314BD3F830319A42B2
S315600459D814D02F4BD3F82C212D4BD3F828311A44E5
S315600459E82B4BD3F83031D31A294AD2F82821B3FB82
S315600459F8F2F101FB02F29B1AFB6101E00023FB61F1
S31560045A08234BD3F82821FB69D31A013BFB61FB6955
S31560045A18002B21D0FA69BB699A4206D21C4BD3F88B
S31560045A282831013BBA699A4216D3FA69BB699A4224
S31560045A3801D9BB69FB613A68BB69D31A7A681344AE
S31560045A48F9691846FFF720FFF860FB68002B03DD49
S31560045A58FB68BA69D31ABB6138690CF021FABB6969
S31560045A68002B06D000F006F90346FB82FB8A002B5E
S31560045A7803D1BB69002BA1D100E000BF3A68BB69BA
S31560045A88D31A18462037BD4680BD00BFC010002013
S31560045A980809002080B584B000AF78607B68002B65
S31560045AA8FCD00E4B1B68002B02D14FF0FF3311E07C
S31560045AB87868FFF7BFFE0346002B07D10123FB6016
S31560045AC80022012178680CF0C7FA02E04FF0FF3330
S31560045AD8FB60FB6818461037BD4680BDC0100020C1
S31560045AE880B58EB000AFB9607B600346FB7313461E
S31560045AF8BB730023FB867B683B61BB687B610023C1
S31560045B083B7600237B760123BB760123FB76002351
S31560045B183B7700237B77FB7BBB770023FB770023EC
S31560045B2887F8203007F124031022002118460AF06A
S31560045B3879FBBB7B87F82C30434B7B624FF48063DD
S31560045B48BB620023FB85BB7B012B03D107F11003E2
S31560045B583B631EE0BB7B022B03D143F22153FB86D6
S31560045B6817E0BB7B032B03D143F22153FB8610E07A
S31560045B78BB7B042B03D143F22153FB8609E0BB7B31
S31560045B88092B03D143F22153FB8602E043F22153E6
S31560045B98FB86FB8E43F22152934250D04FF4F76250
S31560045BA800212A480AF03EFB284B4FF40072C3F8DA
S31560045BB82821264B264A1A60244B1B6807F12402BF
S31560045BC81146184608F062F80346FB86FB8E002BDE
S31560045BD8FCD1204B1B781D4B1B681F49184608F0DF
S31560045BE8B3F80346FB86FB8E002BFCD1174A1B4988
S31560045BF8194808F091F9154B1B681949184608F0B5
S31560045C08A3F80346FB86FB8E002BFCD10F4A154985
S31560045C18134808F081F90D4B1B681349184608F0B8
S31560045C28CBF80346FB86FB8E002BFCD1074A0F494B
S31560045C380D4808F091F9054B1B680D4A1360FB8EF5
S31560045C4818463837BD4680BD3C0C0020080900203C
S31560045C580C0900202C1D00203C100020A9FA2020E5
S31560045C686810002023FB2020941000201133202084
S31560045C78C010002080B400AF00BF074BD3F82C21B6
S31560045C88054BD3F830319A42F7D100231846BD46FE
S31560045C985DF8047B704700BF0809002080B5A4B08E
S31560045CA800AF786039600023C7F888300023C7F8E6
S31560045CB88C300023BB6007F10C037C220021184654
S31560045CC80AF0B0FA0E4B1B68002B12D007F10802D3
S31560045CD80C4B396878680DF077F8C7F88800D7F8F8
S31560045CE8882007F1080311461846FFF74FFEC7F8E0
S31560045CF88C00D7F88C3018469037BD4680BD00BFF7
S31560045D08C0100020EDFB202080B5A6B000AF7860F7
S31560045D1839600023C7F894300023C7F8903000230D
S31560045D28FB6007F110037C22002118460AF07AFA10
S31560045D38164B1B68002B01D1002323E007F10C02E4
S31560045D48134B396878680DF03FF8C7F89400114822
S31560045D5808F072F8D7F8942007F10C0319460D4831
S31560045D680FF034FA0346C7F88C30D7F88C30002B1A
S31560045D7802D1D7F8943001E04FF0FF33C7F890307A
S31560045D88D7F8903018469837BD4680BDC0100020B5
S31560045D98EDFB20203C100020F1B5002A4BD011F011
S31560045DA8030306D011F8014B013A00F8014B42D0BF
S31560045DB8F5E710F003031BD1102A04DB103AF0C987
S31560045DC8102AF0C0FAD2130744BF30C930C053074B
S31560045DD844BF51F8044B40F8044B930744BF31F869
S31560045DE8024B20F8024BD30744BF0C78047022E0B8
S31560045DF8C3070AD4042A16D351F8044B043A20F884
S31560045E08024B250C20F8025BF4E7042A0BD351F8FD
S31560045E18044B043A00F8014B250A20F8025B260E67
S31560045E2800F8016BF1E7002A1EBF11F8014B00F870
S31560045E38014B013AF7D1F1BD80B487B000AF786001
S31560045E487B681B687B6100233B610023FB734CE022
S31560045E587B6901337B617B691B78203B102B3ED8B9
S31560045E6801A252F823F000BFE1392020FF3920202F
S31560045E78FF392020F5392020FF392020FF392020DA
S31560045E88FF392020FF392020FF392020FF392020C0
S31560045E98FF392020D7392020FF392020CD3920200A
S31560045EA8FF392020FF392020EB3920203B6943F055
S31560045EB801033B6119E03B6943F002033B6114E06B
S31560045EC83B6943F004033B610FE03B6943F0080315
S31560045ED83B610AE03B6943F010033B6105E07B697B
S31560045EE8013B7B610123FB7300BFFB7B83F00103EA
S31560045EF8DBB2002BACD17B687A691A603B691846B9
S31560045F081C37BD465DF8047B704700BF80B500AF9B
S31560045F18044B1B680133034A136000F015F800BF8D
S31560045F2880BD00BFC410002080B400AF054B0722B3
S31560045F381A60044B6FF07F425A6000BFBD465DF835
S31560045F48047B704710E000E02DE9B04F9CB000AFC9
S31560045F5800F04CFA02460B46541C43F10005C7E9A7
S31560045F6818450DF067FBF8650023FB664BE04D4B5F
S31560045F78D3E90001D7E9182384183C6341EB03038A
S31560045F887B63484BD7E90C12C3E90012464B1B687E
S31560045F980022BB62FA62D7E91823D7E90A45214683
S31560045FA85118B96029464B41FB60D7E90234C7E901
S31560045FB810343E4B1B6800223B627A62D7E9082399
S31560045FC8D7E9100109F03EFB02460B46C7E90E23E2
S31560045FD8374BD3E90001D7E90E238418BC6141EB3A
S31560045FE80303FB61324BD7E90612C3E90012396C25
S31560045FF8BA6B2E4B1B6802FB03F3CA1A2A4B1A6048
S31560046008F86D0DF028FBFA6E131DFB66002AAED0F8
S315600460180DF010FBB8650023BB6637E0254B1B689B
S31560046028002298469146D7E9182312EB080139608D
S3156004603843EB09037B60D7E90034C7E914341E4B84
S315600460481B6800223B617A61D7E90423D7E9140106
S3156004605809F0F8FA02460B46C7E91223174BD3E947
S315600460680001D7E9122310EB020A41EB030B134B29
S31560046078C3E900AB3A6DBB6C0F49096801FB03F3CE
S31560046088D31A0C4A1360B86D0DF0E5FABB6E1A1D87
S31560046098BA66002BC2D000BF00BF7037BD46BDE8E4
S315600460A8B08F00BFF0080020C8100020BC0600208E
S315600460B8E0080020CC100020B8060020E80800207C
S315600460C880B584B000AF00F073F9B860BB681D4A48
S315600460D8A2FB03239B0C1C4A1360BB681B4AA2FBE6
S315600460E803239B091A4A13600DF0A4FA7860002307
S315600460F8FB601CE000F08EF802460B461549C1E9C0
S315600461080023BFF34F8F00BFBFF36F8F00BF00F04C
S3156004611881F802460B4611460E4BD3E90023134613
S31560046128CB1A1A460C4B1A6078680DF094FAFB6819
S315600461381A1DFA60002BDDD000BF00BF1037BD46BC
S3156004614880BD00BF83DE1B43B8060020D34D6210B2
S31560046158BC060020F8080020D010002080B586B060
S3156004616800AF0346FB710023FB750DF063FAF86014
S3156004617800233B610AE0FB79184600F0EDF8034614
S31560046188FB7500F05FF9F8680DF065FA3B691A1D4E
S315600461983A61002BEFD0FFF793FF18494FF00002DE
S315600461A84FF00003C1E9002315494FF000024FF090
S315600461B80003C1E9002313494FF000024FF00003BE
S315600461C8C1E9002310494FF000024FF00003C1E90A
S315600461D800230E494FF000024FF00003C1E9002383
S315600461E80B494FF000024FF00003C1E900230DF09C
S315600461F842FAFB7D18461837BD4680BDF008002074
S31560046208E0080020E8080020C8080020D00800201C
S31560046218D8080020B0B584B000AF4FF000024FF044
S315600462280003C7E902230DF005FA386000237B6092
S3156004623820E00DF027FA154BD3E90023841841EBC7
S315600462480305C7E90245124BD3E90023D7E90201DE
S31560046258904271EB030305DA0D4BD3E90023C7E9D2
S31560046268022304E00A49D7E90223C1E9002338680E
S315600462780DF0F1F97B681A1D7A60002BD9D0D7E93D
S315600462880223104619461037BD46B0BDF0080020F3
S31560046298C80800202DE9B04F86B000AF4FF0000261
S315600462A84FF00003C7E904230DF0C4F9B86000236E
S315600462B8FB603BE00DF0E6F902460B4622490968A5
S315600462C800200C46054612EB040A43EB050B1F4BEC
S315600462D81B6800223B607A60D7E90023504659461A
S315600462E809F0B0F902460B4610461946184BD3E92D
S315600462F8002310EB020841EB0309C7E90489154B2F
S31560046308D3E90023D7E90401904271EB030305DA64
S31560046318104BD3E90023C7E9042304E00D49D7E900
S315600463280423C1E90023B8680DF095F9FB681A1DC2
S31560046338FA60002BBED0D7E90423104619461837ED
S31560046348BD46BDE8B08F00BFC8100020BC0600205B
S31560046358E0080020D808002080B584B000AF034662
S31560046368FB71FB79002B1BD10DF0B4F9B8600023DF
S31560046378FB600FE00D4B00221A600C4B6FF07F42F6
S315600463885A600A4B00229A60084B07221A60B8685A
S315600463980DF0B1F9FB681A1DFA60002BEAD000E02B
S315600463A800BF012318461037BD4680BD10E000E0E3
S315600463B880B400AF034B1B681846BD465DF8047B82
S315600463C8704700BF4807002080B400AF064B5B687F
S315600463D803F08063002B14BF01230023DBB2184645
S315600463E8BD465DF8047B704700ED00E080B400AFFD
S315600463F8064B5B6800221846114602460B46104651
S315600464081946BD465DF8047B704700BF10E000E09E
S31560046418F0B400AF0A4E76684FF0000C3046614619
S31560046428074EB6684FF0000C32466346841A61EB31
S31560046438030522462B4610461946BD46F0BC7047EE
S3156004644810E000E080B400AF044B4FF000725A606D
S3156004645800BFBD465DF8047B704700BF00ED00E0F1
S3156004646880B586B000AFF860B9601346FB80FB68F8
S3156004647800229A81FB680022DA81FB6800221A608E
S31560046488FA6892F8603043F0010382F86030FB687A
S31560046498BA681A61FB882A4AA2FB03239B089AB244
S315600464A8FB689A86FB680022A3F85420FB680022DE
S315600464B8A3F85020FB680022A3F852200023FB822D
S315600464C817E0FB689B8E1A46B7F91630013302FB50
S315600464D803F31946B7F91630BA680A44F9680E33ED
S315600464E89B000B445A60B7F916309BB201339BB2D2
S315600464F8FB82B7F91630042BE3DDFB68114A9A650B
S31560046508114A104BD31A1B099AB2FB68A3F85C208C
S31560046518F86800F01DF8FB689A6D00230B49F86863
S315600465280DF073FB03461946F86800F0E3FE012193
S31560046538F86800F0A7F800BF1837BD4680BD00BFED
S31560046548ABAAAAAA0000002090010020F8512120D5
S3156004655880B485B000AF78600023FB8113E0B7F997
S315600465680E300D4A52F82330002B06D1B7F90E3097
S3156004657809497A6841F8232009E0B7F90E309BB2D5
S3156004658801339BB2FB81B7F90E30042BE7DD143770
S31560046598BD465DF8047B7047D410002080B483B090
S315600465A800AF0023FB801EE0B7F90630134A52F8A1
S315600465B82330002B11D0B7F90630104A52F823302D
S315600465C893F8603003F00203DBB2002B05D0B7F909
S315600465D806300A4A52F823300AE0B7F906309BB205
S315600465E801339BB2FB80B7F90630042BDCDD00234C
S315600465F818460C37BD465DF8047B7047D4100020F6
S3156004660880B584B000AF786039600023FB813B684D
S31560046618BB607B689B6E002B07D100232BE0BB68AD
S315600466280133BB60FB890133FB81BB681B78002B94
S3156004663807D0BB681B780D2B03D0BB681B780A2B65
S31560046648EDD1FB89242B0AD97B689B6E2421386893
S3156004665898477B689B6E03210948984705E07B68E1
S315600466689B6EFA89114638689847FB89242B01D9A9
S31560046678242300E0272318461037BD4680BD00BF93
S315600466880052212080B582B000AF78600B46FB705B
S315600466987B6893F8603003F00103DBB2002B22D0E9
S315600466A8FB78002B03D0154978680DF044F87B68AD
S315600466B81B685B68194678680DF03DF81049786878
S315600466C80DF039F87B689B68002B02D07B689B6861
S315600466D800E00C4B194678680DF02DF80A4978687D
S315600466E80DF029F805E0094B1B6B194678680DF01F
S315600466F822F800BF0837BD4680BD00BF045121207B
S3156004670804522120085221200C522120C006002060
S3156004671880B485B000AF786039600B23FB737B68FF
S31560046728BB607B68002B02DA7B685B42BB603B68B4
S315600467380B3300221A701DE0BA68204B83FB0213E0
S315600467489910D317C91A0B469B000B445B00D11AE0
S31560046758CAB2FB7B013BFB73FB7B39680B44303263
S31560046768D2B21A70BB68154A82FB03129210DB1701
S31560046778D31ABB60BB68002BDED17B68002B07DAB3
S31560046788FB7B013BFB73FB7B3A6813442D221A702F
S315600467987B68002B07D1FB7B013BFB73FB7B3A6869
S315600467A8134430221A70FB7BC3F10B03DBB25BB272
S315600467B818461437BD465DF8047B70476766666697
S315600467C880B584B000AF78600023FB7306E0FB7B7A
S315600467D8184A3021D154FB7B0133FB73FB7B082BAE
S315600467E8F5D97B685B78C3F30303DBB2012B02D864
S315600467F87B685B681AE07B685B78C3F30303DBB288
S31560046808072B02D87B685B6810E07B685B78C3F308
S315600468180303DBB2082B02D87B685B6806E07B68F7
S315600468285B68044918460CF0E0FF024B18461037BB
S31560046838BD4680BDE810002080B584B000AF78609E
S3156004684839603868FFF7BCFF0346194678680CF068
S3156004685872FF0346C3F116039BB2FB81B7F90E3088
S31560046868002B02DDB7F90E3000E00423FB812021FA
S3156004687878680CF050FFFB89013B9BB2FB81B7F942
S315600468880E30002BF3D13B685B78C3F30303DBB2AA
S31560046898012B06D8364B1B6C194678680CF04BFFEF
S315600468A82FE03B685B78C3F30303DBB2072B06D898
S315600468B82F4B5B6C194678680CF03DFF21E03B680A
S315600468C85B78C3F30303DBB2082B06D8284B9B6CAF
S315600468D8194678680CF02FFF13E03B685B78C3F3BE
S315600468E80303DBB2092B06D8214BDB6C194678689F
S315600468F80CF021FF05E01E4B1B6D194678680CF0F9
S315600469081AFF1C4978680CF016FF07237B7317E097
S315600469183B681B781A4697F90D3042FA03F303F07D
S315600469280103002B01D0782300E02D2319467868EB
S315600469380CF0F1FE97F90D30DBB2013BDBB27B73E9
S3156004694897F90D30002BE3DA0A4978680CF0F3FE00
S3156004695838680CF0D1FF034619467868FFF750FE8D
S31560046968054978680CF0E7FE00BF1037BD4680BD60
S31560046978C0060020105221200451212080B584B01D
S3156004698800AF78607B689B6DBB601D4B9B6819463E
S3156004699878680CF0D0FE0023FB8125E0B7F90E3049
S315600469A81B01BA6813445B78C3F30303DBB2012B98
S315600469B814D8B7F90E301B01BA68134419467868B7
S315600469C80CF0DDFE0346002B08D1B7F90E301B0127
S315600469D8BA68134419467868FFF72EFFB7F90E307C
S315600469E89BB201339BB2FB81B7F90E307A68B2F871
S315600469F85C209342D2DB00BF00BF1037BD4680BD22
S31560046A08C006002080B584B000AF78607B689B6D53
S31560046A18BB60234BDB68194678680CF08CFE002350
S31560046A28FB8130E0B7F90E301B01BA6813445B7812
S31560046A38C3F30303DBB2012B1FD9B7F90E301B016D
S31560046A48BA6813445B78C3F30303DBB2072B14D821
S31560046A58B7F90E301B01BA681344194678680CF006
S31560046A688EFE0346002B08D1B7F90E301B01BA68AF
S31560046A78134419467868FFF7DFFEB7F90E309BB200
S31560046A8801339BB2FB81B7F90E307A68B2F85C20A1
S31560046A989342C7DB00BF00BF1037BD4680BD00BF49
S31560046AA8C006002080B584B000AF78607B689B6DB3
S31560046AB8BB60234B1B69194678680CF03CFE0023BF
S31560046AC8FB8130E0B7F90E301B01BA6813445B7872
S31560046AD8C3F30303DBB2072B1FD9B7F90E301B01C7
S31560046AE8BA6813445B78C3F30303DBB2082B14D880
S31560046AF8B7F90E301B01BA681344194678680CF066
S31560046B083EFE0346002B08D1B7F90E301B01BA685E
S31560046B18134419467868FFF78FFEB7F90E309BB2AF
S31560046B2801339BB2FB81B7F90E307A68B2F85C2000
S31560046B389342C7DB00BF00BF1037BD4680BD00BFA8
S31560046B48C006002080B584B000AF78607B689B6D12
S31560046B58BB60234B5B69194678680CF0ECFD00232F
S31560046B68FB8130E0B7F90E301B01BA6813445B78D1
S31560046B78C3F30303DBB2082B1FD9B7F90E301B0125
S31560046B88BA6813445B78C3F30303DBB2092B14D8DE
S31560046B98B7F90E301B01BA681344194678680CF0C5
S31560046BA8EEFD0346002B08D1B7F90E301B01BA680F
S31560046BB8134419467868FFF73FFEB7F90E309BB25F
S31560046BC801339BB2FB81B7F90E307A68B2F85C2060
S31560046BD89342C7DB00BF00BF1037BD4680BD00BF08
S31560046BE8C006002080B582B000AF78600B46FB70A3
S31560046BF803E0074978680CF09EFDFB785A1EFA7024
S31560046C08002BF6D100BF00BF0837BD4680BD00BF64
S31560046C181452212080B584B000AF78600B46FB70AF
S31560046C287B689B891A467B689B8E013B9A4210DB7C
S31560046C38614B5B68194678680CF07DFD01217868BC
S31560046C48FFF720FD7B681B69194678680CF073FDAD
S31560046C58AEE07B68DA897B689B899A4227D17B6830
S31560046C681A697B689B89591C88B279688881134438
S31560046C78FA781A707B681B697A68928913440022C9
S31560046C881A707B68DB8901339AB27B68DA817B6820
S31560046C9893F8603003F00103DBB2002B01D0FB7874
S31560046CA800E02A23194678680CF035FD80E07B6895
S31560046CB8DA897B689B899A427AD27B689A897B68E7
S31560046CC8DB89D31A9BB2FB811AE07B681A697B68F5
S31560046CD8DB891946B7F90E300B44013B1A447B68C5
S31560046CE81B697968C9890846B7F90E1001440B44CB
S31560046CF812781A70B7F90E309BB2013B9BB2FB81CE
S31560046D08B7F90E30002BE0DC7B681A697B68DB898F
S31560046D18591C88B27968C8811344FA781A707B68F2
S31560046D281B697A689289013291B27A6891817A6824
S31560046D389289134400221A707B68DB89013B9BB2F3
S31560046D48BB8119E07B6893F8603003F00103DBB21A
S31560046D58002B06D07B681A69B7F90C3013441B7884
S31560046D6800E02A23194678680CF0D5FCB7F90C308C
S31560046D789BB201339BB2BB81B7F90C307A689289AE
S31560046D889342DFDB7B689A897B68DB89D31A9BB27B
S31560046D987B8109E0082178680CF0BDFCB7F90A30F4
S31560046DA89BB2013B9BB27B81B7F90A30002BF1DCBD
S31560046DB81037BD4680BD00BFC006002080B48DB0C4
S31560046DC800AFF8607A601A460B467B8113467B727D
S31560046DD8012387F82F3000233B6107F1140300224F
S31560046DE81A605A609A60002387F82E300023BB62C3
S31560046DF80023FB840CE0B7F926309B007A681344B9
S31560046E0800221A60B7F926309BB201339BB2FB8421
S31560046E18B7F92620B7F938309A42ECDB0023BB84ED
S31560046E28AAE097F82E30002B3ED1BB8CFA6813443F
S31560046E381B787A7A9A4216D097F82F30012B12D19A
